:020000040800F2
:10000000F8AB0020F502000877120008B70B0008D3
:1000100075120008B70700082D2000080000000036
:100020000000000000000000000000003D02000889
:10003000150800080000000091020008851D000856
:10004000552300080F0300080F0300085D1900087E
:100050000F0300080F030008C50800080F0300087D
:100060000F0300080F0300080F0300080F03000828
:100070000F0300080F0300080F0300080F03000818
:100080000F0300080F0300080F0300080F03000808
:100090000F0300080F0300080F0300080F030008F8
:1000A0000F0300080F0300080F0300080F030008E8
:1000B0000F0300080F0300080F0300080F030008D8
:1000C0000F0300080F0300080F0300080F030008C8
:1000D0000F0300085D1E00080F0300080F0300084F
:1000E0000F030008FD1500080F0300080F030008A8
:1000F0000F0300080F0300080F0300080F03000898
:100100000F030008251A00080F0300080F0300085A
:100110000F0300080F0300080F0300080F03000877
:100120000F0300080F0300080F0300080F03000867
:100130000F0300080F0300080F0300080F03000857
:100140000F0300080F0300080F0300080F03000847
:100150000F0300080F0300080F0300080F03000837
:100160000F0300080F0300080F0300080F03000827
:100170000F0300080F0300080F0300080F03000817
:100180000F0300080F03000800F002F800F047F822
:100190000AA090E8000C82448344AAF10107DA45E2
:1001A00001D100F03CF8AFF2090EBAE80F0013F0ED
:1001B000010F18BFFB1A43F0010318472C6C000015
:1001C0004C6C0000103A24BF78C878C1FAD85207A6
:1001D00024BF30C830C144BF04680C6070470000C1
:1001E0000023002400250026103A28BF78C1FBD840
:1001F000520728BF30C148BF0B607047642900F028
:100200000581782900F03E81732900F01B820020CF
:1002100070471FB505F0C0F91FBD10B510BD00F047
:1002200075FA1146FFF7F5FF03F038FB00F093FA7B
:1002300003B4FFF7F2FF03BC02F09CF82A4B1968E5
:100240000868B0E8F04F80F30988BFF36F8F4FF074
:10025000000080F311887047000000000648006825
:10026000006880F3088862B661B6BFF34F8FBFF3B2
:100270006F8F00DF00BF00BF08ED00E0DFF80C006B
:10028000016841F470010160704700BF88ED00E033
:10029000EFF30980BFF36F8F134B1A681EF0100F36
:1002A00008BF20ED108A20E9F04F106008B44FF02D
:1002B000500080F31188BFF34F8FBFF36F8F04F0AE
:1002C0005BFB4FF0000080F3118808BC19680868D8
:1002D000B0E8F04F1EF0100F08BFB0EC108A80F3AA
:1002E0000988BFF36F8F70479C000020EFF30580F3
:1002F000704700000948804709480047FEE7FEE7CD
:10030000FEE7FEE7FEE7FEE7FEE7FEE7FEE7FEE7C5
:1003100004480549054A064B70470000B11D000816
:1003200089010008F8A50020F8AB0020F8A70020FC
:10033000F8A70020704700000FB4044910B503AAC5
:10034000029800F083F910BC5DF814FB4000002017
:100350002DE9F0410E460446002020622046E16867
:10036000884730B3252805D0D4E901219047206A79
:10037000401CF2E7E168204600278847050018D0B6
:10038000A5F14100192802D820354FF40067324604
:10039000294620462760FFF731FF40B1012804D0ED
:1003A000F61D26F007060836D8E7361DD6E728469C
:1003B000DAE7206ABDE8F08170B50C460546012AEF
:1003C00005D02878800600D5EA69002302E00123E1
:1003D00005E05B1C934202D2E05C0028F9D1A869D9
:1003E000E618C01AA861286A184428622846AFF3A4
:1003F000008004E0D5E9012114F8010B9047B442D4
:10040000F8D32846AFF3008070BD00002DE9F0411D
:100410000646002410687529314616A510D0AFF3A2
:100420000080002802DA404213A507E031688A07FD
:1004300001D512A502E0490704D511A5012401E068
:10044000AFF3008000210A2206F1240709E0B0FB87
:10045000F2FCB0FBF2F302FB1C003030785418467B
:10046000491C0028F3D123462A463046BDE8F04116
:1004700000F07DB8000000002D0000002B000000FF
:100480002000000070B504460D4621461068AFF309
:1004900000802188090502D50F4A7A4402E00E4AFD
:1004A0007A440E32002104F1240305E000F00F0627
:1004B0000009965D5E54491C0028F7D1207800237E
:1004C000000704D5702D02D009B102231132204655
:1004D000BDE8704000F04BB822690000032A40F2EA
:1004E000308010F0030C00F0158011F8013BBCF1D6
:1004F000020F624498BF11F801CB00F8013B38BFEE
:1005000011F8013BA2F1040298BF00F801CB38BFFB
:1005100000F8013B11F0030300F0AA80083AC0F094
:10052000088051F8043B083A51F804CBA0E80810C1
:10053000F5E7121D5CBF51F8043B40F8043BAFF3F4
:100540000080D20724BF11F8013B11F801CB48BF4E
:1005500011F8012B24BF00F8013B00F801CB48BF84
:1005600000F8012B704770477047704770472DE9BE
:10057000F0470D4699469246044600F1240801686A
:10058000880604D5E06921F01001216000E0012017
:10059000A84201DD471B00E00027A1697A1902EBA0
:1005A0000900081AA0612078C00602D42046AFF3E3
:1005B0000080002608E0D4E901211AF806009047DF
:1005C000206A401C761C20624E45F4DB2078C00671
:1005D0000AD52046AFF3008006E0D4E9012130209F
:1005E0009047206A401C2062381EA7F10107F4DC06
:1005F00007E0D4E9012118F805009047206A401C63
:100600002062281EA5F10105F3DC2046AFF300802F
:100610002078000602D50220BDE8F0870120FBE724
:1006200010B5436913B1AFF3008001E0FFF7C4FEDA
:10063000012010BD127800F124010A7000224A70D6
:100640000122EDE711684FF0FF32E9E7074B70B583
:100650000D467B4400F043F80446284600F052F86B
:1006600010B14FF0FF3070BD204670BD171E000066
:1006700010B5203AC0F00B80B1E81850203AA0E83D
:100680001850B1E81850A0E81850BFF4F5AF5FEA71
:10069000027C24BFB1E81850A0E8185044BF18C924
:1006A00018C0BDE810405FEA827C24BF51F8043BCB
:1006B00040F8043B08BF7047D20728BF31F8023B1F
:1006C00048BF11F8012B28BF20F8023B48BF00F8B3
:1006D000012B704701694A1C02610878704700B518
:1006E0008FB0CDE901310021059105497944CDE96B
:1006F000031011466846FFF72BFE0FB000BD000047
:10070000E5FFFFFF007B00F080007047754600F0BA
:100710002BF8AE4605006946534620F00700854693
:1007200018B020B5FFF7F4FDBDE820404FF00006FB
:100730004FF000074FF000084FF0000B21F00701C9
:10074000AC46ACE8C009ACE8C009ACE8C009ACE80C
:10075000C0098D46704710B50446AFF300802046AF
:10076000BDE81040FFF764BD0048704798A5002021
:1007700010B503F021FE00F03BFD01F0DFFF04485F
:10078000006803F073FFBDE8104003F047BE0000AF
:100790000000002010B500F03FF800F0F5FC01F07B
:1007A000ABFF00F0C1FA03F039FD00F0F5FEBDE843
:1007B000104001F0B9BCFEE710B5044613480168CB
:1007C00011F0450FFBD0042001F022F920B10420E4
:1007D00001F018F9032010BD012001F019F920B132
:1007E000012001F00FF9012010BD084824380068ED
:1007F000A04201D0102010BD40F2FF5001F002F9DC
:100800000248203800680249084010BD342C0140DD
:1008100008E0FFFD7047000070B501218CB008466C
:1008200000F0C0FD0121102000F0F8FD06A9002411
:100830000125022081E8310005904FF4C0601F4E71
:10084000049004A9304600F05FF907220A213046DF
:1008500000F096F907220921304600F091F94FF493
:10086000E130ADF804400090ADF80640ADF8084026
:10087000ADF80C400C20124CADF80A006946204639
:1008800001F076FB4FF4407000F028FD25208DF834
:10089000240003218DF825108DF8261009A80A954B
:1008A00000F0EAFC012240F22551204601F048FB0D
:1008B0000121204601F014FB0CB070BD0000024085
:1008C00000100140084810B5017819B100210170ED
:1008D00006A002E00121017008A0FFF72DFDBDE890
:1008E0001040012000F010B8380000204B45595F3F
:1008F000555020446F776E0A000000004B45595F49
:1009000055502055700A00000149086070470000EA
:10091000143C014030B51A4AC368016853B31368E8
:100920008B431360111D0B680468A3430B6041687F
:1009300011440B68046823430B60114B083319689A
:100940000468A14319601C1D21680568A943216042
:100950008168102905D011440A68006802430A60C2
:1009600030BD1968026811431960216800680143AD
:10097000216030BD4068104402688A43026030BD87
:10098000003C01408000A0F1C0400029016802D075
:1009900041F0010101E0024A11400160704700008E
:1009A000FEFF0F0010B5D0E901121143D0E9032377
:1009B0001A4311434269114382691143C2691143C9
:1009C000026A1143426A1143826A1143C26A1143A7
:1009D000026B114302689200A2F1C042116081686B
:1009E000082907D101688900A1F1C0410A6842F0D5
:1009F00040020A60416BD1E9002342EA03128B688E
:100A00008C891B0243EA04431A430B8A42EA0352CD
:100A10000B7D896942EA03620A4301688900A1F1FA
:100A2000C0414A60C16AB1F5804F08D000686FF0DC
:100A300070418000A0F1C040C0F8041110BD816B6E
:100A4000D1E9002342EA03128B680C8A1B0243EAB5
:100A500004531A430B7D896942EA036200680A4322
:100A60008000A0F1C040C0F8042110BD2DE9F05F66
:100A7000C1F30B06DFF88C800F0BC6F580548A4655
:100A800081461546A24200D8144639038B464FF4DE
:100A90008052404601F076FB002006E0321818F83C
:100AA0000210FF2903D1401C80B2A042F6D3A0421D
:100AB00021D2384601F012FB002006E019F8002090
:100AC0008319401C08F8032080B2A042F6D359468F
:100AD0004FF48052404601F0DBFBA5420FD0281BAB
:100AE000A144A244002685B24FF480547F1CA54245
:100AF000CBD82C46C9E7224651464846EBE7BDE82D
:100B0000F09F00001E040020F0B5002201274FF0E6
:100B1000030C0B6807FA02F52B40AB422CD1066898
:100B200053000CFA03F4A64306604E68D0F800E0C8
:100B30009E4046EA0E0606604E68012E01D0022E47
:100B400012D18668A64386608E68D0F808E09E4081
:100B500046EA0E0686604668AE43466045688E8962
:100B60009640B6B235434560C568A543C5600C697B
:100B70009C40C3681C43C460521C102AC9D3F0BDFA
:100B80004B07DB0E9A40C90810B500EB8100016AE3
:100B90000F249C40A1430162016A1143016210BD10
:100BA0000246002012690A4200D0012070474183AA
:100BB000704701837047FEE710B50021034801F03C
:100BC00055FABDE8104001F0B5BC0000D10B00089B
:100BD00070B5020028D0022A28D04FF0FF30032A37
:100BE00025D10C0C124D8BB2002205EB02110E68C0
:100BF0009E420ADC4E68A64207DC8E689E4204DBF9
:100C0000C968A14201DB104602E0521C022AECD363
:100C100010B1012803D009E00021022001E00021E9
:100C2000012001F043FA01E001F084FC002070BDD6
:100C3000646D000870B509490646002408884D888F
:100C400021464543204600F0C1F900F069FA044806
:100C500001E00680641CAC42FBD370BD1004002090
:100C60000000086C70B40F494FF430524FF4285311
:100C70004FF42C544FF4F0754FF4487650B10120E6
:100C800088710A814B818C810E804D8070BC002060
:100C900000F040B9002088710A814B818C810D8061
:100CA0004E80F3E710040020F0B50B4E0B4B758916
:100CB0001D80070A9C1C27806D1C1D80C0B22080EF
:100CC000B08918800D0A2580401C1880C8B2208089
:100CD000308918802280F0BD10040020FEFF076CD0
:100CE0002DE9F0438146A2EB0900401C1F460C464B
:100CF00085B2DFF83080079E0FE02146484600F0BD
:100D000065F900F00DFA0020414602E00E80401C1B
:100D100080B2A842FAD3641CA4B2BC42EDD9BDE8AB
:100D2000F08300000000086C2DE9F043A3B001211E
:100D30007A2000F037FB0121084600F04BFB02252A
:100D400001260024CDE90056CDE9025469466348E6
:100D50000496FFF7D9FE4CF2337003278DE8A1000B
:100D6000DFF87C91CDE9034669464846FFF7CCFEA3
:100D70004FF680708DE8A100DFF86881CDE9034669
:100D800069464046FFF7C0FE28038DE8A100CDE983
:100D9000034669464846FFF7B7FE80208DE8A1006C
:100DA000CDE9034669464846FFF7AEFE0C22002116
:100DB0004846FFF7E5FE0C2201214846FFF7E0FE1A
:100DC0000C2204214846FFF7DBFE0C220521484691
:100DD000FFF7D6FE0C2208214846FFF7D1FE0C2271
:100DE00009214846FFF7CCFE0C220A214846FFF7AE
:100DF000C7FE0C220E214846FFF7C2FE0C220F212F
:100E00004846FFF7BDFE0C2207214046FFF7B8FE1B
:100E10000C2208214046FFF7B3FE0C220921404670
:100E2000FFF7AEFE0C220A214046FFF7A9FE0C2276
:100E30000B214046FFF7A4FE0C2211464046FFF767
:100E40009FFE0C220D214046FFF79AFE0C220E2138
:100E50004046FFF795FE0C220F214046FFF790FE1B
:100E60000C220D214846FFF78BFE0C220721484635
:100E7000FFF786FE0F20CDE914043C20CDE91604CF
:100E80000920CDE91A4018940820CDE91C40199496
:100E90001E941F94209406202194CDE9050410206F
:100EA000CDE9074009940B940A9400020C94CDE913
:100EB0000D408000CDE90F4014A8CDE911401BA8DA
:100EC000139005A8FFF76EFD01210620FFF75AFDDC
:100ED00001F076FC23B0BDE8F0830000000402407E
:100EE000000C024000100240034808B50088ADF82D
:100EF0000000BDF8000008BD0000086C044910B5F2
:100F00000880052001F037FABDE81040FFF7ECBF7C
:100F1000FEFF076C30B52B4B00219A88A2F51344D5
:100F2000413C0FD0A2F5D044043C0BD0A2F5A6441E
:100F3000103C07D0A2F5AA44103C03D0A2F5C85437
:100F4000633C3DD1082812D2DFE800F01104060806
:100F50000A0C0E1080210AE0402108E0C02106E0C2
:100F6000202104E0602102E0A02100E0E0214FF414
:100F7000585000F0DFF814495889088000248A1C72
:100F80001480451C0D801480851C0D801C88641EF7
:100F9000250A1580C51C0D80E0B210809889088054
:100FA00000241480441C0C8000241480841C0C80B9
:100FB0005B885B1E1C0A1480C41C0C80D8B2108095
:100FC00030BD000010040020FEFF076C70B50A4E13
:100FD0000A4B72891A80050A9C1C2580521C1A80B3
:100FE000C0B22080B08918800A0A2280401C188074
:100FF000C8B2208070BD000010040020FEFF076C06
:101000002DE9F84F82461F460C468B46580700D004
:10101000012000EBD700790810FB01F0203AC0B2A4
:1010200002F0FF090026009041E00C2F10D0102F95
:1010300012D0182F3ED1204909EBC90001EB8000E6
:101040004FF00008855D28060AD51C4802880BE091
:1010500009EB49001A49F1E71A4901EB0910EFE7DA
:101060000A9828B91548428821465046FFF71CFEC9
:101070006806050E1448641CA4B24088A04219D921
:10108000A4EB0B00B84209D10AF101001FFA80FA63
:101090000D485C46018851450CD906E008F1010075
:1010A00000F0FF08B8F1080FCDD3761CF6B2009817
:1010B0008642BAD3BDE8F88F066000085C000020C5
:1010C000A2550008165A0008100400202DE9F84F18
:1010D000044600F0FF0810190D46DDE90A761FFAF4
:1010E00080FA58191FFA80F94FF0000B11E05445AF
:1010F00002D3E819444685B24D450FD23B462946F6
:101100002046CDF800B0FFF77BFF04EB570084B218
:10111000761C3278A2F120005E28E8D9BDE8F88F6D
:10112000024803490089088070470000100400202D
:10113000FEFF076C024A1080901C0180704700007F
:10114000FEFF076C4FF4FA740121002000F03EF816
:10115000204603F053FA0021084600F037F82046F5
:1011600003F04CFAF0E74FF4FA740021012000F08C
:101170002DF8204603F042FA0121084600F026F837
:10118000204603F03BFAF0E7064807490160C0211A
:101190004160012100228160C0E90421C26001F0A8
:1011A0008FB90000EC00002000000240064B30B177
:1011B000012807D10A468021184601F0B5B90A4630
:1011C0004021F9E7704700000000024000B585B0FB
:1011D0000022CDE9022003A8009001928DF81010A2
:1011E0008DF80820684603F07DF805B000BD0000CA
:1011F0001CB511480224CDE90040002380220FA134
:10120000104803F037FF012801D015220CE00A48EE
:101210000023001DCDE9004080220BA10C4803F003
:1012200029FF012807D01A2202B00AA1BDE8104008
:101230000DA0FFF781B81CBD180000206C6564305C
:1012400000000000451100086C65643100000000DA
:10125000671100082E2E5C4150505C6D795F7461FF
:10126000736B2E63000000004552522573202564E5
:101270000D0A0000FEE7704730B50F230178426881
:101280000125FAB1144A126801F1E02102F4E0628A
:10129000C2F5E062C2F30722C2F10404D3404278EF
:1012A000A24084781C401443220181F80024007875
:1012B00000F01F018D404009800000F1E020C0F8DF
:1012C000005130BD01F01F0085404809800000F149
:1012D000E020C0F8805130BD0CED00E00249084329
:1012E00002490860704700000000FA050CED00E0BC
:1012F000014908627047000000000E4210B501214C
:10130000034800F0B3FEBDE8104000F02DB8000027
:101310001513000870B500B3022820D0032802D0AE
:101320004FF0FF3070BD0B0C0E4C8AB2002004EB66
:1013300000110E6896420ADC4E689E4207DC8E68F9
:10134000964204DBC968994201DB054601E0401C76
:10135000EDD025B900F098FE01E000F005F800207E
:1013600070BD0000846D00081CB547F6FF7000904A
:101370004FF4F0734FF496724FF48C71C820FFF75E
:10138000AFFC182005A1CDE90001034646224FF429
:10139000AF71DC20FFF79AFE1CBD0000506F706F2C
:1013A00075740000044A0029116801D0014300E06F
:1013B000814311607047000030380240044A002920
:1013C000116801D0014300E08143116070470000C3
:1013D00034380240044A0029116801D0014300E07A
:1013E000814311607047000038380240044A0029E8
:1013F000116801D0014300E0814311607047000093
:1014000040380240044A0029116801D0014300E03D
:10141000814311607047000020380240044A0029CF
:10142000116801D0014300E0814311607047000062
:1014300044380240044A0029116801D0014300E009
:1014400081431160704700002438024070B5204B82
:101450001968204C11F00C0104D06610042903D047
:10146000082903D004601BE0066019E0184A121F27
:101470001168C1F38055116801F03F0115B1B6FB49
:10148000F1F101E0B4FBF1F114681268C4F38814BF
:101490006143C2F30142521C5200B1FBF2F1016000
:1014A00019680F2202EA11110B4A545C0168E140ED
:1014B00041601C68072505EA9424145D21FA04F4B0
:1014C00084601B6805EA5333D25CD140C16070BDB3
:1014D000083802400024F4002800002002460020C2
:1014E000510901290BD002290CD00849096802F0E2
:1014F0001F02012393400B4200D001207047034993
:101500007439F3E70149091FF0E70000743802401D
:10151000054900220A700A70012802D0042801D16E
:1015200005200870704700007038024001490860CB
:10153000704700003C0E4742C0F30121032907D148
:10154000074B1968074A21F4F81102400A431A6050
:10155000034968310A68C0F30B0002430A60704710
:1015600008380240FFFCFF0F05490028086802D038
:1015700040F0040001E020F0040008607047000023
:1015800000080650034A0146002012680A4200D0B3
:10159000012070470408065070B500240121402046
:1015A000FFF70CFF0120FFF7DFFF42F2107504E0A8
:1015B000641CA4B2642000F0DEFE0120FFF7E2FF0D
:1015C00008B9AC42F4D3AC4206D36A2203A108A006
:1015D000FEF7B2FE012070BD002070BD2E2E5C48CB
:1015E000415244574152455C7379732E63000000A9
:1015F00045525225732025640D0A000010B54FF4A2
:101600008074204600F08AF8012805D1204600F0B9
:101610002BF804A0FEF790FEBDE810404FF4003018
:10162000FFF772B9414C41524D2D2D4166746572E0
:1016300020776F726B2121210D0A0000010901EB57
:10164000810100F00F0000EB4100C0B270470021A3
:1016500003E0491C0A38C9B2C0B20A28F9D2090706
:1016600040EA11607047000080B240F08000C14342
:101670000348026802F080021143016070470000D5
:101680000C28004008B50D4900200090086840066D
:1016900012D44FF0FF3008608B130868009A00F0F6
:1016A0004000521C00929A4201D00028F5D00868F0
:1016B000400601D4002008BD012008BD0C280040D0
:1016C0000248016821F08001016070470C28004049
:1016D000020010B50F480C4601680F4801EA0001EE
:1016E0004FEA1140E070C1F30423637001F03F033F
:1016F000A370C1F3423121700AD1FFF79FFFE07060
:101700006078FFF79BFF6070A078FFF797FFA070ED
:1017100010BD0000042800403FFFFF0004490246BE
:1017200000200968034B1940114200D00120704786
:101730000C2800407F3F0100020010B510480C4605
:101740000168104801EA0001C1F305402070C1F3AF
:101750000623637001F07F03A3704FF0400303EA98
:101760001141E1700AD1FFF769FF20706078FFF73F
:1017700065FF6070A078FFF761FFA07010BD0000EA
:10178000002800407F7F7F0070B5124D0446002680
:10179000CA20286053202860FFF774FFA8B10D48C5
:1017A0001C38016821F04001016001682268114382
:1017B00001600848A168143801600168A28841EA04
:1017C00002410160FFF77CFF0126FF2028603046C0
:1017D00070BD00002428004008B5034901EB8000DB
:1017E0000090006808BD00005028004070B50C460D
:1017F0000026010060780FD0FFF720FFA078FFF7E8
:101800001DFFA078E17840EA014560782178000268
:1018100040EA4130054315E0C10603D520F0100031
:101820000A306070E078FFF712FF05046078FFF778
:101830000EFF45EA0025A078FFF709FF0543207851
:1018400045EA40350D4CCA20206053202060FFF748
:1018500019FF78B10A480540084820380560FFF7AD
:101860002FFF06481C380068800602D400F09AF862
:1018700000B10126FF202060304670BD24280040C2
:101880003FFFFF002DE9F0410C460026234F0100E9
:101890002078396832464FEA416104D0002930DAB5
:1018A000FFF7CCFE2EE0002900DBE270FFF7CFFE51
:1018B00005046078FFF7CBFE45EA0025A078FFF726
:1018C000C6FE0543E07845EA0045144CCA201C34A6
:1018D000206053202060FFF7D5FE68B11048054016
:1018E0000E4808380560FFF7EBFE3868800602D422
:1018F00000F058F800B10126FF2020603046BDE816
:10190000F081E270A078217840EA01456078E178C2
:10191000000240EA01400543D7E7000008280040E4
:101920007F7F7F0008B58DF802208DF801108DF8BB
:1019300000308DF8030069460020FFF757FF08BD0F
:1019400008B58DF800008DF801108DF802208DF893
:10195000033069460020FFF795FF08BD1CB54FF422
:1019600080642046FFF7DAFE01280ED12046FFF7FB
:101970007BFE684600F084FD9DF802309DF8012052
:101980009DF8001004A0FEF7D7FCBDE81C404FF402
:101990008000FEF7B9BF000025643A25643A25644B
:1019A000200D0A0018B50020104B0090CA201860C6
:1019B000532018600D491839086820F0A00008600D
:1019C0004FF400340868009A00F02000521C009286
:1019D000A24201D00028F5D00868800601D5012078
:1019E00000E00020FF21196018BD000024280040FD
:1019F00008B5034A02EB80000090016008BD0000BA
:101A0000502800400149086070470000382C014010
:101A1000034A0146002012680A4200D001207047A4
:101A2000342C014000F014B810B5084A0168116068
:101A3000131D1968D0E901242243D0E9034004436F
:101A40006FF30A0122430A431A6010BD082C0140BB
:101A50002DE9F0414FF48070FFF7DAFF354C364D39
:101A60004CF23A3610B3A878002101280ED0A960B4
:101A70003048001F016841F4807101602068B04364
:101A800020600120E870A868BDE8F0812B480C2296
:101A9000C0E900124022C0E9022111010161FFF7F3
:101AA000C3FF0C20FEF788FEA860E1E70220FFF7E5
:101AB000AFFF40B10220FFF7A5FF2068B0432060D0
:101AC0000220A860E0E70820FFF7A2FF40B108204D
:101AD000FFF798FF2068B04320600420A860D3E798
:101AE0002020FFF795FF40B12020FFF78BFF2068F3
:101AF000B04320600620A860C6E71020FFF788FFEB
:101B000040B11020FFF77EFF2068B0432060052021
:101B1000A860B9E74FF400773846FFF779FF00284F
:101B2000B2D03846FFF76EFF2068B0432060072030
:101B3000A860A9E73C2C0140440000206801002077
:101B400070B50B4C05460221204600F01DF8002818
:101B5000F9D02946204600F020F80121204600F067
:101B600013F80028F9D0204600F015F8C0B270BD77
:101B7000003001400029018802D041F0400101E01D
:101B800021F04001018070470246002012890A427C
:101B900000D001207047808970478181704730B53F
:101BA00002884C8802F441530A88CD8822438C88ED
:101BB0002C4322430C8922434C8922438C892243A3
:101BC000CC8922431A430280828B22F400628283F2
:101BD000098A018230BD000010B58A0721F0030494
:101BE0000849120F21440F23D1F8084893409C4321
:101BF000C1F80848D1F8083890400343C1F80838C4
:101C000010BD00000030014010B5054C034B247896
:101C100053F824309847002010BD00002014002005
:101C2000700000200CB5002227490092019208683C
:101C300040F4803008604FF4A043086800F400309E
:101C400001900098401C0090019810B900989842AB
:101C5000F3D10868800334D5012001901A48403040
:101C6000026842F0805202601848026842F4404222
:101C700002601548083002680260026842F40042BF
:101C80000260026842F4A0520260031F104A1A6008
:101C90000A6842F080720A600A689201FCD50D4918
:101CA00040F205720A60016821F0030101600168D9
:101CB00041F0020101600168C1F381010229FAD1FA
:101CC0000CBD01920CBD00000038024000700040C5
:101CD00008544007003C02407CB540F2CF10FEF7AC
:101CE000A9FF4FF6E0704FF496740090B42322469B
:101CF00078216420FEF7F4FF10A31820CDE900033B
:101D00000346642287219620FFF7E0F94BF6404016
:101D10004FF4BE7500904FF4E1732A462146DC2053
:101D2000FEF7DEFF1F20009040F28A232A464FF480
:101D3000FA71DC20FEF7D4FF7CBD0000536574759A
:101D40007000000010B50021034800F08FF9BDE8D5
:101D50001040FFF7C1BF00005D1D000810B50B4625
:101D600058B102280BD0032802D04FF0FF3010BD2D
:101D70001146184600F04AF801E0FFF7ADFF0020D9
:101D800010BD000010B5502080F31188BFF34F8FB5
:101D9000BFF36F8F03F0AEF918B104494FF08050D4
:101DA0000860002080F3118810BD000004ED00E001
:101DB000124810B5016841F47001016010480168D3
:101DC00041F0010101600E4A0021083211600268F1
:101DD0000C4B1A400260031D0B4A1A60026822F481
:101DE0008022026006480C300160FFF71BFF0349A8
:101DF0004FF000608039086010BD000088ED00E001
:101E000000380240FFFFF6FE10300024F0B482B22A
:101E1000030C114C002004EB00110E6896420ADC02
:101E20004E689E4207DC8E68964204DBC968994280
:101E300001DB054602E0401C0228ECD335B1012D40
:101E400007D100210220F0BC00F030B90021084683
:101E5000F9E7F0BC70470000946D00082DE9F041EF
:101E60001A4F40F22551384600F04BF800281ED09A
:101E7000384600F0D3F8164EC4B2306A28B138465E
:101E8000BDE8F04113A100F0DDB8114D2146243D1D
:101E9000288C2C54288C401C2884384600F0C7F825
:101EA0000D2C06D095F8200000F01F002884BDE816
:101EB000F0810AA1384600F0C5F805482A8C25387B
:101EC0000021115401203062F1E7000000100140B0
:101ED000280100204D4F4E20627573790D0A0000D5
:101EE0000029818902D041F4005101E021F4005120
:101EF000818170470246002012880A4200D00120EA
:101F0000704770B501F01F0501260024C1F342138C
:101F100006FA05F2012B0FD0022B0FD0838A4FEA6D
:101F200011210088134206FA01F600EA060001D0EA
:101F300000B10124204670BD8389F0E7038AEEE7F3
:101F400010B5C1F3421301F01F040121A140012B80
:101F500007D0022B07D01430002A026805D00A43AC
:101F600004E00C30F8E71030F6E78A43026010BD59
:101F70007FB50446008A0D46C98820F440500143CD
:101F80002182A08941F20C618843A9882A891143E2
:101F90006A8902431143A181A08A20F44071A88973
:101FA0000843A0826846FFF751FA1A48844202D0DB
:101FB0001948844201D1039800E00298A1890904DC
:101FC00000EBC00101EB0010296801D5490000E0D9
:101FD0008900B0FBF1F06422B0FBF2F109010B09BA
:101FE0006FF018056B4300EB8300A3891D044FF0CD
:101FF000320306D503EBC000B0FBF2F000F007009F
:1020000005E003EB0010B0FBF2F000F00F00084316
:1020100020817FBD00100140001401408088C0F382
:1020200008007047C1F3080181807047FEE710B5D2
:102030000446FFF7F7FF80212046FFF75BFF0028EB
:10204000F9D010BD70B50D46064600243046295D16
:10205000FFF7EDFF641C285D0028F7D140213046D2
:10206000FFF748FF0028F9D070BD0000044A11B105
:102070001178491C11700349127841F82200704709
:10208000700000202014002005490878002806D0A0
:10209000401E0870002211461046FFF7B5BD70477C
:1020A000700000200020FEF787BD000070B50D46CF
:1020B0000446012807D8002211460120FFF7A4FD9D
:1020C000044900200870044850F82420284690470E
:1020D000002070BD70000020B46D000870B50403CE
:1020E00000F0C2F800F0BAF80E4D00220121284697
:1020F00000F01AFA2020FFF723FDC4F30740FFF792
:102100001FFDC4F30720FFF71BFDE0B2FFF718FD2A
:1021100001221146284600F007FABDE8704000F0A1
:102120009DB800000004024010B50F480F4C01217B
:10213000C0E90041002202610322C0E902124161AC
:1021400000F0BEF901221146204600F0EDF900F042
:102150002BF900F043F8064908800146BDE810401D
:1021600004A0FEF7E9B80000EC00002000040240E3
:102170005A000020666C6173685F49443A202578F4
:102180000D0A00002DE9F041134F15460C46064696
:1021900000220121384600F0C7F90320FFF7D0FCE8
:1021A000C4F30740FFF7CCFCC4F30720FFF7C8FCDB
:1021B000E0B2FFF7C5FC002405E0FF20FFF7C0FCFC
:1021C0003055641CA4B2AC42F7D33846BDE8F041A8
:1021D0000122114600F0A8B90004024070B5124E69
:1021E000002422460121304600F09EF99020FFF79E
:1021F000A7FC0020FFF7A4FC0020FFF7A1FC0020B3
:10220000FFF79EFCFF20FFF79BFC44EA0025FF2020
:10221000FFF796FC40EA050401221146304600F023
:1022200083F9204670BD00000004024070B50A4CDE
:1022300000220121204600F077F90520FFF780FCFD
:10224000FF20FFF77DFC054601221146204600F0E5
:102250006BF9284670BD00000004024010B5FFF77E
:10226000E5FFC007FBD110BD10B5084C00220121CD
:10227000204600F059F90620FFF762FC20460122B3
:10228000BDE81040114600F04FB9000000040240C4
:102290002DE9F0410746C8B2C0F580740E461546D8
:1022A000A24200D814464FF4807822463146384680
:1022B00000F00EF8A54208D0281B2744264485B21A
:1022C0004446A542F1D82C46EFE7BDE8F081000076
:1022D0002DE9F04115460C460646FFF7C5FF134FA2
:1022E00000220121384600F01FF90220FFF728FCE8
:1022F000C4F30740FFF724FCC4F30720FFF720FCDA
:10230000E0B2FFF71DFC002404E0305DFFF718FC8D
:10231000641CA4B2AC42F8D301221146384600F046
:1023200003F9BDE8F041FFF799BF00000004024047
:102330000149002008607047082C004010B50121B9
:10234000CC022046FFF75EF82046BDE81040002191
:10235000FFF758B8FFF7ECFFFFF7F0FF01A0FDF71C
:10236000EBFFFEE75744472120706C205245530D88
:102370000A0000007047C0EB0020401EFDD27047ED
:1023800010B50368007A38B101280AD19A88996893
:102390001868FEF76BFB04E09A8899681868FFF7E5
:1023A000F1FE002010BD00002DE9F0434FF48059EC
:1023B00085B02B4C01214846FFF730F84FF002085A
:1023C000284E3820C4F80880E4E803600025032084
:1023D000012784E8A100A4F10C0000F071F80522A7
:1023E00003213046FEF7CCFB052204213046FEF7E0
:1023F000C7FB052211463046FEF7C2FB01214846C5
:10240000FFF718F800214846FFF714F8ADF8005020
:102410004FF48270ADF80200ADF808707015ADF899
:102420000A000820ADF80C0007200F4CADF804504E
:10243000ADF81000ADF80680ADF80E5069462046A4
:10244000FFF7ADFB01212046FFF794FBFF20FFF7CC
:1024500077FB01212046FFF78DFB05B0BDE8F08337
:10246000EC000020000402400030014010B504469A
:10247000C1B20248FFF7DBFD204610BD001001404D
:102480001CB5044601A90020FFF756F96946002053
:10249000FFF71EF99DF8020060719DF8040020709E
:1024A0009DF8050060709DF8010020719DF8060000
:1024B000A0709DF80000E0709DF80300A0711CBDA5
:1024C00070B5174902680D15531ACE1404468A4296
:1024D00015D008DC134951180DD0A9420DD0B142D6
:1024E00014D1042012E0AB420BD0B3420BD0B3F5B1
:1024F000406F0BD109E0012008E0022006E008202F
:1025000004E0102002E0202000E040200121FEF73E
:1025100049FF211D2068BDE87040FEF7F5BA0000B4
:10252000000C02400000FEBF0AB1FEF742BBFEF7FE
:102530003EBB00002DE9FC4148F23040FEF77AFB3B
:102540004FF61F044FF49675B4232A467821642071
:102550000094FEF7C5FB18200FA1CDE9000103464A
:10256000642287219620FEF7B1FD40F2FF706E00D5
:102570004FF4C87700903346B42239463220FEF734
:10258000AFFB33464FF4D772394628460094FEF726
:10259000A7FBBDE8FC810000486F6D657669657733
:1025A0000000000010B5002186B00846FFF714FBBC
:1025B00001240020CDE900400820CDE9020468464E
:1025C000FEF7A8F906208DF810008DF811400220C2
:1025D0008DF8120004A80594FEF74EFE06B010BD5B
:1025E000164E174C002510213046FEF7D9FA002868
:1025F000E07808D0A8B113A0FDF79EFEE570257124
:10260000192060710DE0C0070FD02179481C20719E
:102610006079814205D90EA0FDF78EFE052060711C
:102620002571322001F0EAFFDDE70DA0FDF784FE01
:10263000E07840F00100E070F3E700000010024095
:10264000540000204B4559302055500D0A00000021
:102650004B455930205052455353204F4E0D0A00E0
:102660004B45593020444F574E0D0A00164E174C1B
:10267000002508213046FEF793FA0028207808D07C
:10268000A8B113A0FDF758FE257065701420A07046
:102690000DE0C0070FD06178481C6070A0788142BF
:1026A00005D90EA0FDF748FE0420A0706570322009
:1026B00001F0A4FFDDE70DA0FDF73EFE207840F01D
:1026C00001002070F3E700000010024054000020D9
:1026D0004B4559312055500D0A0000004B455931EA
:1026E000205052455353204F4E0D0A004B4559314F
:1026F00020444F574E0D0A0070B50D4C0D4818215F
:1027000020600020C4E901100125C4E90405E0604F
:102710002046FFF7D5FE0848C4E9000502206061A5
:102720002046FFF7CDFEBDE87040FFF73BBF00003D
:10273000EC00002000100240000002401CB51148CF
:102740000724CDE90040002380220FA1104802F0A9
:1027500091FC012801D024220CE00A480023001D2E
:10276000CDE9004080220BA10C4802F083FC012837
:1027700007D0292202B00AA1BDE810400DA0FDF744
:10278000DBBD1CBD200000206B65795F30000000C0
:10279000E12500086B65795F310000006D260008B7
:1027A0002E2E5C4150505C6D795F7461736B2E63AB
:1027B0000000000045525225732025640D0A0000D8
:1027C0002DE9F05F42F210742046FFF7D4FD01219D
:1027D0000020FEF7AFFC2046FFF7CDFD0020FEF7FE
:1027E0008DFBFE4CFE4E41F66312A08049F241374C
:1027F00045F210384FF6FF7145F21055FF2804D30B
:10280000884202D0B0F5134F6ED1D3203080FEF74E
:102810006BFBA080FEF768FBA080FEF765FB01EA7A
:102820000020A080FEF760FBA3881843A080B84278
:102830005AD0BF203080FEF757FBA080FEF754FB34
:10284000A080FEF751FBA080FEF74EFB01EA0020BE
:10285000A080FEF749FBA3881843A0F5D043A080D1
:10286000043B41D0D4203080FEF73EFBA080FEF731
:102870003BFBA080FEF738FB01EA0020A080FEF7BA
:1028800033FBA3881843A08040452DD04FF45A4015
:102890003080FEF729FBA0804FF45B403080FEF7CC
:1028A00023FB01EA0020A0804FF45C403080FEF75B
:1028B0001BFBA3881843A080B0F5004F7ED0A84230
:1028C00012D0A1203080FEF70FFBA080FEF70CFB9A
:1028D00001EA0020A080FEF707FBA1880843A0F5CD
:1028E000AE41A08061396AD080B2B84205D040457F
:1028F00003D0A84201D0904219D14FF02040D0F827
:102900001C1121F00F01C0F81C11D0F81C1121F48A
:102910007061C0F81C11D0F81C1141F00301C0F81F
:102920001C11D0F81C1141F40071C0F81C11A188D1
:10293000ACA0FDF701FDA088A8427DD14FF4704303
:1029400055211846FEF7F6FB4FF20104AA21204656
:10295000FEF7F0FB651C52212846FEF7EBFBA71C97
:1029600008213846FEF7E6FB4FF2040801214046F5
:10297000FEF7E0FB0D214FF43040FEF7DBFB0D21AD
:102980004BF20100FEF7D6FB0D214BF20200FEF7E1
:10299000D1FB4FF4364934214846FEF7CBFB3421B6
:1029A0004BF20160FEF7C6FB34214BF20260FEF7EA
:1029B000C1FB4FF4314A0D21504601E0FDE3FDE338
:1029C000FEF7B8FB4BF2011B0D215846FEF7B2FB98
:1029D0000D214BF20210FEF7ADFB34214FF43740CE
:1029E000FEF7A8FB34214BF20170FEF7A3FB342164
:1029F0004BF20270FEF79EFB00214FF43240FEF7CF
:102A000099FB00214BF20120FEF794FB00214BF2D1
:102A10000220FEF78FFB24214FF43840FEF78AFB9B
:102A200024214BF60100FEF785FB24214BF6020022
:102A3000FEF780FB012100E0FEE34FF43F40FEF78C
:102A400079FB0F214FF43340FEF774FB0F214BF25B
:102A50000130FEF76FFB0F214BF20230FEF76AFBED
:102A600034214FF43940FEF765FB34214BF6011059
:102A7000FEF760FB34214BF60210FEF75BFB0821EA
:102A80004FF43540FEF756FB08214BF20150FEF79C
:102A900051FB08214BF20250FEF74CFB03214FF48F
:102AA0004240FEF747FB24214FF43A40FEF742FB39
:102AB00024214BF60120FEF73DFB24214BF602209A
:102AC000FEF738FB00214FF43C40FEF733FB782142
:102AD0004BF60140FEF72EFB00214BF60240FEF7BD
:102AE00029FB00214FF43D40FEF724FB78214BF6F3
:102AF0000150FEF71FFB00214BF60250FEF71AFBB8
:102B000000214FF43E40FEF715FB64214BF60160B7
:102B1000FEF710FB00214FF45140FEF70BFB332171
:102B20004DF20110FEF706FB00214DF20210FEF7F8
:102B300001FB34214DF20310FEF7FCFA00214DF2A7
:102B40000410FEF7F7FA3A214DF20510FEF7F2FAFB
:102B500000214DF20610FEF7EDFA4A214DF2071062
:102B6000FEF7E8FA00214DF20810FEF7E3FA5C21C7
:102B70004DF20910FEF7DEFA00214DF20A10FEF7C1
:102B8000D9FA81214DF20B10FEF7D4FA00214DF253
:102B90000C10FEF7CFFAA6214DF20D10FEF7CAFA7F
:102BA00000214DF20E10FEF7C5FAE5214DF20F108F
:102BB000FEF7C0FA01214DF21010FEF7BBFA132107
:102BC0004DF21110FEF7B6FA01214DF21210FEF788
:102BD000B1FA54214DF213100CE000001004002053
:102BE000FEFF076C204C43442049443A25780D0AE7
:102BF00000000000FEF79EFA01214DF21410FEF7CE
:102C000099FA82214DF21510FEF794FA01214DF246
:102C10001610FEF78FFACA214DF21710FEF78AFA46
:102C200002214DF21810FEF785FA00214DF219101D
:102C3000FEF780FA02214DF21A10FEF77BFA01210D
:102C40004DF21B10FEF776FA02214DF21C10FEF732
:102C500071FA34214DF21D10FEF76CFA02214DF28B
:102C60001E10FEF767FA67214DF21F10FEF762FA99
:102C700002214DF22010FEF75DFA84214DF2211061
:102C8000FEF758FA02214DF22210FEF753FAA42162
:102C90004DF22310FEF74EFA02214DF22410FEF7FA
:102CA00049FAB7214DF22510FEF744FA02214DF200
:102CB0002610FEF73FFACF214DF22710FEF73AFA21
:102CC00002214DF22810FEF735FADE214DF22910CF
:102CD000FEF730FA02214DF22A10FEF72BFAF2210C
:102CE0004DF22B10FEF726FA02214DF22C10FEF7C2
:102CF00021FAFE214DF22D10FEF71CFA03214DF2B0
:102D00002E10FEF717FA10214DF22F10FEF712FACF
:102D100003214DF23010FEF70DFA33214DF2311040
:102D2000FEF708FA03214DF23210FEF703FA6D2187
:102D30004DF23310FEF7FEF900214FF45240FEF73A
:102D4000F9F933214DF20120FEF7F4F900214DF29B
:102D50000220FEF7EFF934214DF20320FEF7EAF9E5
:102D600000214DF20420FEF7E5F93A214DF205204D
:102D7000FEF7E0F900214DF20620FEF7DBF94A21CB
:102D80004DF20720FEF7D6F900214DF20820FEF79C
:102D9000D1F95C214DF20920FEF7CCF900214DF26A
:102DA0000A20FEF7C7F981214DF20B20FEF7C2F988
:102DB00000214DF20C20FEF7BDF9A6214DF20D20A9
:102DC000FEF7B8F900214DF20E20FEF7B3F9E52128
:102DD0004DF20F20FEF7AEF901214DF21020FEF763
:102DE000A9F913214DF21120FEF7A4F901214DF2AA
:102DF0001220FEF79FF954214DF21320FEF79AF9A5
:102E000001214DF21420FEF795F982214DF2152093
:102E1000FEF790F901214DF21620FEF78BF9CA2139
:102E20004DF21720FEF786F902214DF21820FEF729
:102E300081F900214DF21920FEF77CF902214DF2B3
:102E40001A20FEF777F901214DF21B20FEF772F9E7
:102E500002214DF21C20FEF76DF934214DF21D20A8
:102E6000FEF768F902214DF21E20FEF763F9672193
:102E70004DF21F20FEF75EF902214DF22020FEF7F1
:102E800059F984214DF22120FEF754F902214DF227
:102E90002220FEF74FF9A4214DF22320FEF74AF934
:102EA00002214DF22420FEF745F9B7214DF22520ED
:102EB000FEF740F902214DF22620FEF73BF9CF2123
:102EC0004DF22720FEF736F902214DF22820FEF7B9
:102ED00031F9DE214DF22920FEF72CF902214DF2C5
:102EE0002A20FEF727F9F2214DF22B20FEF722F9D6
:102EF00002214DF22C20FEF71DF9FE214DF22D206E
:102F0000FEF718F903214DF22E20FEF713F91021D8
:102F10004DF22F20FEF70EF903214DF23020FEF77F
:102F200009F933214DF23120FEF704F903214DF266
:102F30003220FEF7FFF86D214DF23320FEF7FAF84C
:102F400000214FF45340FEF7F5F833214DF20130E4
:102F5000FEF7F0F800214DF20230FEF7EBF83421D5
:102F60004DF20330FEF7E6F800214DF20430FEF793
:102F7000E1F83A214DF20530FEF7DCF800214DF280
:102F80000630FEF7D7F84A214DF20730FEF7D2F8A7
:102F900000214DF20830FEF7CDF85C214DF20930EA
:102FA000FEF7C8F800214DF20A30FEF7C3F8812180
:102FB0004DF20B30FEF7BEF800214DF20C30FEF75B
:102FC000B9F8A6214DF20D30FEF7B4F800214DF20C
:102FD0000E30FEF7AFF8E5214DF20F30FEF7AAF8FC
:102FE00001214DF21030FEF7A5F813214DF21130FA
:102FF000FEF7A0F801214DF21230FEF79BF85421A4
:103000004DF21330FEF796F801214DF21430FEF721
:1030100091F882214DF21530FEF78CF801214DF226
:103020001630FEF787F8CA214DF21730FEF782F806
:1030300002214DF21830FEF77DF800214DF21930D3
:10304000FEF778F802214DF21A30FEF773F80121ED
:103050004DF21B30FEF76EF802214DF21C30FEF7E8
:1030600069F834214DF21D30FEF764F802214DF26B
:103070001E30FEF75FF867214DF21F30FEF75AF859
:1030800002214DF22030FEF755F884214DF2213017
:10309000FEF750F802214DF22230FEF74BF8A42142
:1030A0004DF22330FEF746F802214DF22430FEF7B0
:1030B00041F8B7214DF22530FEF73CF802214DF2E0
:1030C0002630FEF737F8CF214DF22730FEF732F8E1
:1030D00002214DF22830FEF72DF8DE214DF2293085
:1030E000FEF728F802214DF22A30FEF723F8F221EC
:1030F0004DF22B30FEF71EF802214DF22C30FEF778
:1031000019F8FE214DF22D30FEF714F803214DF28F
:103110002E30FEF70FF810214DF22F30FEF70AF88F
:1031200003214DF23030FEF705F833214DF23130F6
:10313000FEF700F803214DF23230FDF7FBFF6D2161
:103140004DF23330FDF7F6FF00214FF45440FDF708
:10315000F1FF33214DF20140FDF7ECFF00214DF26C
:103160000240FDF7E7FF34214DF20340FDF7E2FF97
:1031700000214DF20440FDF7DDFF3A214DF20540FC
:10318000FDF7D8FF00214DF20640FDF7D3FF4A219D
:103190004DF20740FDF7CEFF00214DF20840FDF74C
:1031A000C9FF5C214DF20940FDF7C4FF00214DF23B
:1031B0000A40FDF7BFFF812101E060E35CE34DF2CF
:1031C0000B40FDF7B7FF00214DF20C40FDF7B2FFB9
:1031D000A6214DF20D40FDF7ADFF00214DF20E404E
:1031E000FDF7A8FFE5214DF20F40FDF7A3FF0121F8
:1031F0004DF21040FDF79EFF13214DF21140FDF7F7
:1032000099FF01214DF21240FDF794FF54214DF238
:103210001340FDF78FFF01214DF21440FDF78AFFA7
:1032200082214DF21540FDF785FF01214DF2164038
:10323000FDF780FFCA2100E010E34DF21740FDF7D3
:1032400079FF02214DF21840FDF774FF00214DF285
:103250001940FDF76FFF02214DF21A40FDF76AFF9A
:1032600001214DF21B40FDF765FF02214DF21C408C
:10327000FDF760FF34214DF21D40FDF75BFF022199
:103280004DF21E40FDF756FF67214DF21F40FDF73E
:1032900051FF02214DF22040FDF74CFF84214DF2F9
:1032A0002140FDF747FF02214DF22240FDF742FF8A
:1032B000A4214DF22340FDF73DFF02214DF22440B1
:1032C000FDF738FFB7214DF22540FDF733FF02210E
:1032D0004DF22640FDF72EFFCF214DF22740FDF79E
:1032E00029FF02214DF22840FDF724FFDE214DF297
:1032F0002940FDF71FFF02214DF22A40FDF71AFF7A
:10330000F2214DF22B40FDF715FF02214DF22C402A
:10331000FDF710FFFE214DF22D40FDF70BFF0321BD
:103320004DF22E40FDF706FF10214DF22F40FDF724
:1033300001FF03214DF23040FDF7FCFE33214DF239
:103340003140FDF7F7FE03214DF23240FDF7F2FE6A
:103350006D214DF23340FDF7EDFE00214FF4554055
:10336000FDF7E8FE33214DF20150FDF7E3FE0021A9
:103370004DF20250FDF7DEFE34214DF20350FDF711
:10338000D9FE00214DF20450FDF7D4FE3A214DF252
:103390000550FDF7CFFE00214DF20650FDF7CAFEA5
:1033A0004A214DF20750FDF7C5FE00214DF20850AD
:1033B000FDF7C0FE5C214DF20950FDF7BBFE002178
:1033C0004DF20A50FDF7B6FE81214DF20B50FDF78C
:1033D000B1FE00214DF20C50FDF7ACFEA6214DF2DE
:1033E0000D50FDF7A7FE00214DF20E50FDF7A2FE95
:1033F000E5214DF20F50FDF79DFE01214DF21050D9
:10340000FDF798FE13214DF21150FDF793FE0121B7
:103410004DF21250FDF78EFE54214DF21350FDF780
:1034200089FE01214DF21450FDF784FE82214DF2F8
:103430001550FDF77FFE01214DF21650FDF77AFE83
:10344000CA214DF21750FDF775FE02214DF21850BA
:10345000FDF770FE00214DF21950FDF76BFE0221C1
:103460004DF21A50FDF766FE01214DF21B50FDF79B
:1034700061FE02214DF21C50FDF75CFE34214DF23D
:103480001D50FDF757FE02214DF21E50FDF752FE72
:1034900067214DF21F50FDF74DFE02214DF22050E5
:1034A000FDF748FE84214DF22150FDF743FE022135
:1034B0004DF22250FDF73EFEA4214DF22350FDF7C0
:1034C00039FE02214DF22450FDF734FEB7214DF2B2
:1034D0002550FDF72FFE02214DF22650FDF72AFE62
:1034E000CF214DF22750FDF725FE02214DF2285045
:1034F000FDF720FEDE214DF22950FDF71BFE0221D3
:103500004DF22A50FDF716FEF2214DF22B50FDF739
:1035100011FE02214DF22C50FDF70CFEFE214DF262
:103520002D50FDF707FE03214DF22E50FDF702FE50
:1035300010214DF22F50FDF7FDFD03214DF23050CB
:10354000FDF7F8FD33214DF23150FDF7F3FD032176
:103550004DF23250FDF7EEFD6D214DF23350FDF787
:10356000E9FD00214FF45640FDF7E4FD33214DF213
:103570000160FDF7DFFD00214DF20260FDF7DAFD8D
:1035800034214DF20360FDF7D5FD00214DF20460BA
:10359000FDF7D0FD3A214DF20560FDF7CBFD00218E
:1035A0004DF20660FDF7C6FD4A214DF20760FDF7BA
:1035B000C1FD00214DF20860FDF7BCFD5C214DF21C
:1035C0000960FDF7B7FD00214DF20A60FDF7B2FD7D
:1035D00081214DF20B60FDF7ADFD00214DF20C6035
:1035E000FDF7A8FDA6214DF20D60FDF7A3FD00211A
:1035F0004DF20E60FDF79EFDE5214DF20F60FDF7E7
:1036000099FD01214DF21060FDF794FD13214DF25B
:103610001160FDF78FFD01214DF21260FDF78AFD6B
:1036200054214DF21360FDF785FD01214DF2146028
:10363000FDF780FD82214DF21560FDF77BFD012134
:103640004DF21660FDF776FDCA214DF21760FDF7C9
:1036500071FD02214DF21860FDF76CFD00214DF265
:103660001960FDF767FD02214DF21A60FDF762FD5A
:1036700001214DF21B60FDF75DFD02214DF21C6042
:10368000FDF758FD34214DF21D60FDF753FD022179
:103690004DF21E60FDF74EFD67214DF21F60FDF7F4
:1036A00049FD02214DF22060FDF744FD84214DF2D9
:1036B0002160FDF73FFD02214DF22260FDF73AFD4A
:1036C000A4214DF22360FDF735FD02214DF2246067
:1036D000FDF730FDB7214DF22560FDF72BFD0221EE
:1036E0004DF22660FDF726FDCF214DF22760FDF754
:1036F00021FD02214DF22860FDF71CFDDE214DF277
:103700002960FDF717FD02214DF22A60FDF712FD39
:10371000F2214DF22B60FDF70DFD02214DF22C60E0
:10372000FDF708FDFE214DF22D60FDF703FD03219D
:103730004DF22E60FDF7FEFC10214DF22F60FDF7DB
:10374000F9FC03214DF23060FDF7F4FC33214DF21A
:103750003160FDF7EFFC03214DF23260FDF7EAFC2A
:103760006D214DF23360FDF7E5FC55211846FDF75C
:10377000E1FCAA212046FDF7DDFC52212846FDF799
:10378000D9FC08213846FDF7D5FC00214046FDF75D
:10379000D1FCCC215046FDF7CDFC00215846FDF769
:1037A000C9FC05214846FDF7C5FC70214FF43740A0
:1037B000FDF7C0FC70214BF20170FDF7BBFC01214D
:1037C0004FF43840FDF7B6FC03214BF60100FDF73E
:1037D000B1FC03214BF60200FDF7ACFC03214BF6D4
:1037E0000300FDF7A7FC02214FF43C40FDF7A2FCCB
:1037F00000214BF60140FDF79DFC00214BF60240F5
:10380000FDF798FCD0214FF44940FDF793FC0221CD
:103810004CF60110FDF78EFC50214CF60210FDF71E
:1038200089FC50214CF60310FDF784FC50214CF626
:103830000410FDF77FFC00214FF45450FDF77AFC93
:1038400055214FF46850FDF775FC4FF488503080D7
:103850007820FEF790FD4FF4245030800020FDF7D3
:1038600001FA002202210748FEF75EFEBDE8F05F84
:103870004FF61F00FDF7DEB9A280FFF73EB8A58026
:10388000FBE700000004024010B50268007A18B996
:1038900011791068FDF78AFC002010BD1CB5FCF7FB
:1038A00079FFFEF7FFFB182011A1CDE900010346C7
:1038B000D22228211E20FDF709FC13A0FCF73CFDB5
:1038C00013490220CDE900010202002311A1124890
:1038D00001F0D0FB012807D02D2210A111A0FCF788
:1038E0002BFD4FF0FF301CBD00F0F2FFFEE70000A3
:1038F00048656C6C6F206D792053544D2070656E57
:103900006E656C210000000052544F53200D0A00D8
:103910000000002074630000710700086D61696E8B
:103920002E63000045525225732025640D0A0000C5
:103930002DE9F041184E0F460446F5683068001D29
:1039400000F0F6FC38B9306890F82C10012088405F
:10395000316981433161601C07D137B13168BDE8FD
:10396000F0410E48091D00F01BBD30682C44AC42EC
:103970004460316805D2B06BBDE8F041091D00F02C
:10398000F7BC706B091D00F0F3FCB06A844200D2F2
:10399000B462BDE8F08100009C0000205CA500201E
:1039A0002DE9F041054600F007FD2E4EB068401CA1
:1039B000B06030682C4F10B1706940B32DE03560B5
:1039C000B068012829D1002404EB840007EB8000B3
:1039D00000F0C0FC641C082CF6D32348A03000F093
:1039E000B9FC2148B43000F0B5FC1F48C83000F0E5
:1039F000B1FC1D48DC3000F0ADFC1B48F03000F09D
:103A0000A9FC1948A03070631430B06305E0306839
:103A1000E96AC06A884200D83560706A0121401C9A
:103A20007062E86A326981401143316100EB8000C5
:103A300007EB8000291D00F0B3FC00F0EFFC70697B
:103A400000280CD03068E96AC06A884207D207496A
:103A50004FF080500860BFF34F8FBFF36F8FBDE80A
:103A6000F08100009C0000206CA4002004ED00E028
:103A700010B500F0A1FC0E4C2068A0B90D4800F074
:103A800069FC0C48143000F065FC0A48E060143012
:103A9000206100220C210A2001F02EF8206010B1D4
:103AA00005A100F077FDBDE8104000F0B7BC0000B4
:103AB000D800002070A50020546D72510000000055
:103AC00070B5124E124D1CE000F04EFF306820B170
:103AD000002401F02DFCA4B901E00124F9E700F075
:103AE0006BFCF068C468201D00F022FCA868401E32
:103AF000A8606868401E686000F090FC204600F0F6
:103B000052F868680028DFD170BD000048A5002089
:103B10009C00002030B4026C0B46002A0BD0C16818
:103B20001144C1604468A14201D30168C16030BC46
:103B30001846FCF7D3BC30BC70472DE9F041856BCB
:103B4000174604460026026C82B1C7B1E068FCF754
:103B5000C5FCE168206C091AE1602268914202D23A
:103B60006168081AE060022F16D017E02068A8B933
:103B7000606801F035FB0646002060600EE0A0683A
:103B8000FCF7ACFC216CA0680844A0606168884226
:103B900004D32068A06001E005B16D1E6D1CA56313
:103BA0003046BDE8F08110B50446006B00F05EFCC5
:103BB0002046BDE8104000F059BC000010484FF40A
:103BC0001041420706D0C01D0D4920F00700411AE0
:103BD000C1F510410B4A00230144C2E90003083932
:103BE000103A21F0070111604B600B600B1AC0E91D
:103BF000001393604FF000405360D06070470000A6
:103C00002C14002088000020074E4FF08054074DF0
:103C1000FFF756FF30680128FAD92C60BFF34F8FA9
:103C2000BFF36F8FF4E700006CA4002004ED00E008
:103C30002DE9F047DDE909840E4682466FF0030165
:103C4000206B01EB82010844089D20F0070799468C
:103C5000780705D040F22B3219A11FA0FCF76CFBAE
:103C600000202218315C82F83410315C11B1401C04
:103C70001028F6D3002684F84360082D00D30725CA
:103C8000E562C4E91156201D00F06FFB04F1180035
:103C900000F06BFB2461C5F108006462A061E6647A
:103CA00084F850604A465146384600F0A1FA206038
:103CB000B8F1000F01D0C8F80040BDE8F08700005F
:103CC0002E2E5C4672656552544F535C7372635C72
:103CD0007461736B732E63004572726F723A257351
:103CE0002C25640D0A00000030B5114900E0114692
:103CF0000A688242FBD34B685C18844203D1406857
:103D000018444860084643681C18944209D1084C7E
:103D1000103C2468A24209D052681A4442600A68E2
:103D200012680260814200D0086030BD0460F9E78B
:103D30008800002070B5002441600B4D0061914265
:103D400006D8D11A8269914206D2011D286907E07E
:103D50009A4203D2994201D3012403E0011DE8688D
:103D600000F006FB204670BDD800002010B50446C8
:103D700000F022FBA06B20B1002400F04FFB204696
:103D800010BD0124F9E70000F8B5054614480E46B9
:103D9000C068C068C468201D00F0CAFAE069012844
:103DA00017D1A0692B46411932462046FFF7C2FFC2
:103DB00078B100200346014600902A46204601F0D3
:103DC000A3FB30B907494FF4027201F11C00FCF764
:103DD000B3FA616A01B02046BDE8F0400847000030
:103DE000D80000206454000870B586B02C4E4CE01A
:103DF0000198002849DB039C606910B1201D00F088
:103E000097FA04A800F0AAF8054601980A283CD2BF
:103E1000DFE800F00505053B273805053B2702983C
:103E2000A169034601442A462046FFF783FF002884
:103E30002BD0616A20468847E069012825D10020FF
:103E400000900298A169002342181946204601F00B
:103E50005BFBD0B940F2213212A119A0FCF76CFA39
:103E600013E00298A06128B94FF44E720DA114A07E
:103E7000FCF762FAA0692B4641191A462046FFF763
:103E800059FF02E0204600F0F1FA00231A4601A98A
:103E9000306800F067FE0028AAD106B070BD0000AF
:103EA000D80000202E2E5C4672656552544F535C3C
:103EB0007372635C74696D6572732E630000000039
:103EC0004572726F723A25732C25640D0A0000004A
:103ED000F8B50D46064600F047FD684600F03EF88E
:103EE0000446009810B101F023FAF8BD1148ADB1B5
:103EF00001690968D9B10025311B2A46006800F024
:103F00005BFB01F015FA0028EFD10B494FF0805010
:103F10000860BFF34F8FBFF36F8FF8BDA642EBD899
:103F200001F006FA21463046FFF72EFFF8BD0125C5
:103F3000E2E70000D800002004ED00E00648416BF5
:103F4000096829B1416BC968C968496881627047CD
:103F50004FF0FF31FAE700009C00002070B50546E5
:103F600001F0C2F8064E0446B068844203D200F065
:103F700009F8012000E0002028602046B46070BDF0
:103F8000D8000020F8B5184E26E0C068C46805685F
:103F9000201D00F0CDF9616A20468847E0690128BC
:103FA0001AD1A0692844A84206D924616060211D65
:103FB000F06800F0DDF90FE00020034601460090B4
:103FC0002A46204601F0A0FA30B9084940F2923260
:103FD00001F11C00FCF7B0F9F06801680029D4D1A8
:103FE0003169C6E90310F8BDD80000206454000808
:103FF00008484068401C05D040F20F1206A10CA0F2
:10400000FCF79AF9502080F31188BFF34F8FBFF36C
:104010006F8FFEE7900000202E2E5C467265655281
:10402000544F535C706F72745C706F72742E6300C7
:104030004572726F723A25732C25640D0A000000D8
:10404000084CE068016839B1002139B10020FFF760
:104050003FFFFFF7C9FEF4E70121F6E7C0680068FB
:10406000F5E70000D80000202DE9F041044600F0FB
:10407000A3F994F9455004F1240609E0606A48B1B7
:10408000304601F009F908B100F058FB6D1E6DB221
:10409000002DF3DC4FF0FF3684F8456000F0BEF9E8
:1040A00000F08AF994F9445004F1100709E02069FE
:1040B00048B1384601F0F0F808B100F03FFB6D1E42
:1040C0006DB2002DF3DC84F84460BDE8F04100F0EF
:1040D000A5B900002DE9F0410546002600F044FC9A
:1040E000314F386808B9FFF769FDF86805424ED1CD
:1040F000002D4CD0083568070BD005F00700C0F143
:1041000008000544680704D0BF2228A12EA0FCF7B0
:1041100013F9E5B37868854239D823491031084648
:10412000046801E0214604466068A84202D2206883
:104130000028F7D13868B846844228D00E68206835
:10414000086060680836401B10280ED96719780788
:1041500004D0EC2215A11CA0FCF7EEF86068401B0F
:10416000786038466560FFF7BFFD6168D8F80400E5
:104170004246401AC8F80400D8F80830984200D2E5
:104180009060D8F80C0001430020C4E9000101F060
:10419000CFF8700705D04FF4967204A10AA0FCF77F
:1041A000CBF83046BDE8F081780000202E2E5C462A
:1041B00072656552544F535C706F72745C686561D0
:1041C000705F342E630000004572726F723A25737F
:1041D0002C25640D0A0000000449086818B108681D
:1041E000826C521C82640868704700009C000020AA
:1041F00010B5031F4FF080741C601B1F21F00101DC
:104200001960191F044B0B6014390A60091F6FF005
:10421000020244380A6010BDF13F00083EB501219A
:1042200041F6FF740807FDF7E1F80120FDF760F89B
:104230000020FDF7D1FA45F25005A8422ED001200A
:10424000FDF766F904E0641CA4B20A20FEF793F8B7
:104250004120FDF743F90028F5D00CB34FF48070EE
:10426000FDF76AF90120FDF761F97F200190FF2039
:104270000290002000906846FDF786FA00231A4657
:104280003B211120FDF75CFB0523062203211420AE
:10429000FDF748FB29460020FDF7AAFB00203EBDA4
:1042A00001203EBD10B501460068097A11B101290F
:1042B00005D102E0FEF7E4F801E000F002F800208A
:1042C00010BD10B504468278417800780023FDF7D0
:1042D00037FBE37862792179A079BDE81040FDF7DA
:1042E00021BB000010B50849426851F8221011B1F5
:1042F000BDE810400847262204A10AA0FCF71CF8DC
:104300004FF0FF3010BD0000600000202E2E5C53E7
:104310004552564943455C736572766963652E6301
:104320000000000045525225732025640D0A00004C
:10433000D0E9013201699A60D0E901235A604A68E4
:10434000824201D182684A60002202610868401EF0
:104350000860704700F108014FF0FF32C0E9011218
:10436000C160016100210160704700210161704757
:1043700030B50C68621C02D000F1080202E002694C
:1043800004E01A4653681D68A542FAD953684B6089
:1043900099608A60516008610168491C016030BD04
:1043A00042684A6093688B609368596091600861C5
:1043B0000168491C01607047502080F31188BFF3E9
:1043C0004F8FBFF36F8F09494868401C4860012830
:1043D0000AD10748006810F0FF0F05D040F2B9126B
:1043E00004A10AA0FBF7A8BF7047000090000020BE
:1043F00004ED00E02E2E5C4672656552544F535C0E
:10440000706F72745C706F72742E63004572726F9D
:10441000723A25732C25640D0A00000010B5084C73
:10442000606828B94FF4E07206A10CA0FBF784FF86
:104430006068401E606001D180F3118810BD0000EB
:10444000900000202E2E5C4672656552544F535CDE
:10445000706F72745C706F72742E63004572726F4D
:10446000723A25732C25640D0A00000070B50028EF
:104470002AD0164DA0F108046068E968084205D109
:104480004FF4A07212A119A0FBF756FF206828B1C3
:1044900040F241120EA115A0FBF74EFF6068E968DB
:1044A000084211D02268002A0ED18843606000F0D3
:1044B0005BFA60686968084468602046FFF714FC8E
:1044C000BDE8704000F034BF70BD000078000020EF
:1044D0002E2E5C4672656552544F535C706F727439
:1044E0005C686561705F342E630000004572726F16
:1044F000723A25732C25640D0A00000006484FF41B
:104500007A710068B0FBF1F14FF0E020491E416183
:1045100007210161704700000400002010B5FBF77F
:10452000E5FE104C10280CD300F1E02090F8F003C9
:104530002178884205D24FF440720BA110A0FBF7FE
:10454000FBFE13480068A16800F4E060884207D9C8
:10455000BDE810404FF4447203A109A0FBF7ECBE84
:1045600010BD0000900000202E2E5C467265655242
:10457000544F535C706F72745C706F72742E630072
:104580004572726F723A25732C25640D0A00000083
:104590000CED00E010B5074B002253F832401CB17F
:1045A000521C082AF9D310BD43F8321003EBC201A4
:1045B000486010BD2CA4002070B515460E46044678
:1045C000FFF7FAFE94F944100020491C01D184F849
:1045D000440094F94510491C01D184F84500FFF7C7
:1045E0001DFFA06B28B92A46314604F1240000F0D3
:1045F000D7F82046BDE87040FFF736BD10B504007F
:1046000012D00E49096B29B140F2CF420CA112A081
:10461000FBF792FE00F0A8F900212046FFF788F989
:1046200000F086FE002807D10F494FF08050086047
:10463000BFF34F8FBFF36F8F10BD00009C000020B1
:104640002E2E5C4672656552544F535C7372635CE8
:104650007461736B732E63004572726F723A2573C7
:104660002C25640D0A00000004ED00E070B504463E
:10467000FFF7A2FE244D04B92C68201DFFF758FE59
:1046800058B9E06A214A00EB800152F8211021B9A3
:1046900001218140286988432861A06A18B104F18A
:1046A0001800FFF745FE686A401C6862286884426B
:1046B00008D11648211DDC30FFF772FE6868401CE7
:1046C000686007E0A868401EA8602046FFF76BFA04
:1046D000FFF734FCFFF7A2FE6869002812D02868B3
:1046E00084420FD1286B28B140F2654208A10EA088
:1046F000FBF722FE10494FF080500860BFF34F8F48
:10470000BFF36F8F70BD00009C0000206CA40020E0
:104710002E2E5C4672656552544F535C7372635C17
:104720007461736B732E63004572726F723A2573F6
:104730002C25640D0A00000004ED00E00149012071
:10474000C86170479C00002070B50D46040005D17B
:1047500040F6063207A10DA0FBF7EEFD0F480168F9
:1047600020461831FFF704FE2846BDE870400121BD
:10477000FFF7DEB82E2E5C4672656552544F535CCF
:104780007372635C7461736B732E63004572726F36
:10479000723A25732C25640D0A0000009C0000204D
:1047A00070B514460E46050005D140F6313209A118
:1047B0000EA0FBF7C1FD1148016828461831FFF72C
:1047C000EFFD0CB14FF0FF3621463046BDE870409A
:1047D000FFF7AEB82E2E5C4672656552544F535C9F
:1047E0007372635C7461736B732E63004572726FD6
:1047F000723A25732C25640D0A0000009C000020ED
:1048000070B5040039D01D4DE06A2968C96A884234
:1048100033D2A069002804DB2868C06AC0F1080010
:10482000A061E06A164E00EB8000616906EB800033
:1048300081421FD1201DFFF77BFD012150B9E06AA5
:1048400000EB800256F8222022B92A6901FA00F012
:1048500082432A612868C06AE0622A698140114364
:10486000296100EB800006EB8000211DBDE870404F
:10487000FFF796BD2868C06AE06270BD9C0000200A
:104880006CA4002010B5040005D140F6C13205A18A
:104890000AA0FBF751FD0D48016A2160C068606005
:1048A00010BD00002E2E5C4672656552544F535C5D
:1048B0007372635C7461736B732E63004572726F05
:1048C000723A25732C25640D0A0000009C0000201C
:1048D0001CB517480024CDE900402346802215A1CD
:1048E000164800F0C7FB012803D100F0D1FD0128D4
:1048F0000AD0401C1BD102B040F28472BDE81040C7
:104900000FA115A0FBF718BD502080F31188BFF34D
:104910004F8FBFF36F8F06484FF0FF312C38816205
:1049200001214161C460BDE81C4000F065B81CBDB8
:10493000C800002049444C4500000000093C000824
:104940002E2E5C4672656552544F535C7372635CE5
:104950007461736B732E63004572726F723A2573C4
:104960002C25640D0A0000000248016B491C0163FC
:10497000704700009C00002070B5134D286B10B1EB
:104980000120E86170BD0020E86128690F4EB0FA8F
:1049900080F0C0F11F0000EB800456F8240028B915
:1049A00040F6F6220AA110A0FBF7C6FC06EB840035
:1049B00000F10802416849684160914201D14968AB
:1049C0004160C868286070BD9C0000206CA4002075
:1049D0002E2E5C4672656552544F535C7372635C55
:1049E0007461736B732E63004572726F723A257334
:1049F0002C25640D0A0000001CB5304C206830499D
:104A0000884205D140F259122EA134A0FBF794FC44
:104A100020682B49491E884205D14FF4AD7229A167
:104A20002EA0FBF789FC314C20780190FF202070EC
:104A300020788DF800009DF800009DF8001000F02F
:104A4000F000884205D040F273121EA123A0FBF7AC
:104A500073FC9DF80000264A00F0500010700720FB
:104A6000906007E09068401E90609DF80000400054
:104A70008DF800009DF800000006F3D4107A0002C3
:104A800000F4E0609060019820700C4820300168CC
:104A900041F470010160016841F070410160FFF76D
:104AA0002DFD00205060FBF7E9FB1248016841F042
:104AB00040410160FBF7D2FB00201CBD00ED00E08F
:104AC00071C20F412E2E5C4672656552544F535C85
:104AD000706F72745C706F72742E63004572726FC7
:104AE000723A25732C25640D0A00000000E400E0F2
:104AF0009000002034EF00E070B50E46050005D1AF
:104B00004FF4C4720DA113A0FBF716FC96B105FB80
:104B100006F04830FFF7DEFA040009D004F148013E
:104B200020464EB10160C0E90F56012100F0DEF8C9
:104B3000204670BD0020ECE70060F4E72E2E5C46B6
:104B400072656552544F535C7372635C7175657521
:104B5000652E63004572726F723A25732C25640DC1
:104B60000A0000002DE9FF4F83B09B468A460400EF
:104B70004FF0000605D140F2DC4251A156A0FBF7F0
:104B8000DBFBBAF1000F07D1206C28B140F2DD4207
:104B90004BA151A0FBF7D0FB00F098FA38B905986B
:104BA00028B14FF49C6246A14BA0FBF7C5FB4FF028
:104BB00000094FF08057DFF83081FFF7FDFBA56B50
:104BC00045B351462046E668FEF7A4FFBBF1000F4F
:104BD00013D0E660606A50B104F1240000F05CFB81
:104BE00028B1C8F80070BFF34F8FBFF36F8FFFF786
:104BF00015FC012007B0BDE8F08F6D1EA56320688D
:104C000010B9FFF7E9FA606020690028EFD004F1DD
:104C10001000E3E7059808B11EB106E0FFF7FEFBC0
:104C200027E06846FFF72EFE0126FFF7F7FBFFF7A8
:104C30009BFEFFF7C1FB94F94400401C01D184F8AE
:104C4000449094F94500401C01D184F84590FFF749
:104C5000E5FB05A9684600F0C7F9002820460AD000
:104C6000FFF702FA00F064FB2046FFF77FF8002808
:104C7000A3D00020BEE7FFF779F8D8B1206830B99B
:104C8000FFF79AFB6068FFF7BBFDFFF7C7FB04F176
:104C900024000599FFF758FD2046FFF7E5F900F0DD
:104CA00047FB002889D1C8F80070BFF34F8FBFF3CE
:104CB0006F8F82E72046FFF7D7F900F039FB7CE7DA
:104CC0002E2E5C4672656552544F535C7372635C62
:104CD00071756575652E63004572726F723A257342
:104CE0002C25640D0A00000004ED00E070B50D46AF
:104CF000040005D140F21B121CA122A0FBF71CFBF3
:104D0000FFF75AFBD4E90F20216802FB0011616014
:104D10000021A1632168A1600A46D4E90F01401E69
:104D200000FB0121E16021464FF0FF3001F8440F04
:104D3000487004F110004DB1FFF70CFB04F12400A2
:104D4000FFF708FBFFF76AFB012070BD216900290E
:104D5000F8D000F0A1FA0028F4D00E494FF08050AE
:104D60000860BFF34F8FBFF36F8FEBE72E2E5C46CB
:104D700072656552544F535C7372635C71756575EF
:104D8000652E63004572726F723A25732C25640D8F
:104D90000A00000004ED00E02DE9FF4F83B01F463C
:104DA0008B4604004FF0000605D140F2D9224DA1F8
:104DB00052A0FBF7C1FABBF1000F07D1206C28B15C
:104DC00040F2DA2247A14DA0FBF7B6FA022F08D134
:104DD000E06B012805D040F2DB2242A147A0FBF79F
:104DE000ABFA00F073F938B9059828B140F2DE2229
:104DF0003CA142A0FBF7A0FA4FF0000A4FF0805808
:104E0000DFF80891FFF7D8FAA06BE16B884205D371
:104E1000022F03D00598C8B1DEB11EE03A465946CC
:104E20002046FEF78AFE616A19B104F1240000F001
:104E300033FA28B1C9F80080BFF34F8FBFF36F8FEB
:104E4000FFF7ECFA012007B0BDE8F08FFFF7E6FAB4
:104E500021E06846FFF716FD0126FFF7DFFAFFF7AE
:104E600083FDFFF7A9FA94F94400401C01D184F8AE
:104E700044A094F94500401C01D184F845A0FFF7F7
:104E8000CDFA05A9684600F0AFF830B12046FFF72B
:104E9000EBF800F04DFA0020D5E7FFF78DFAA06B94
:104EA000E16B884201D1012500E00025FFF7B6FA49
:104EB00095B104F110000599FFF746FC2046FFF775
:104EC000D3F800F035FA00289CD1C9F80080BFF370
:104ED0004F8FBFF36F8F95E72046FFF7C5F800F0BF
:104EE00027FA8FE72E2E5C4672656552544F535C4D
:104EF0007372635C71756575652E63004572726FC0
:104F0000723A25732C25640D0A00000004ED00E0C0
:104F10002DE9F0471F4690468946040005D140F22E
:104F20009F3227A12CA0FBF707FAB9F1000F07D198
:104F3000206C28B14FF4687221A127A0FBF7FCF97F
:104F4000022F08D1E06B012805D040F2A1321CA14C
:104F500021A0FBF7F1F9FFF7E1FA5020EFF31186FA
:104F600080F31188BFF34F8FBFF36F8FA06BE16B9E
:104F7000884206D3022F04D0002086F31188BDE8B2
:104F8000F08794F945503A4649462046FEF7D5FD4C
:104F9000681C04D06D1C84F845500120EDE7606A60
:104FA0000028FAD004F1240000F076F90028F4D0AB
:104FB000B8F1000FF1D00121C8F80010EDE70000B2
:104FC0002E2E5C4672656552544F535C7372635C5F
:104FD00071756575652E63004572726F723A25733F
:104FE0002C25640D0A00000070B50D46040005D1A3
:104FF00040F6CB3214A11AA0FBF79EF92DB940F66A
:10500000CC3211A116A0FBF797F9FFF7D5F9184A92
:10501000D06829684B1C0FD02368126A934202D0D3
:10502000626882420AD96268801A884206D2081AE7
:1050300028602046FFF726FC002400E00124FFF74B
:10504000EDF9204670BD00002E2E5C46726565525B
:10505000544F535C7372635C7461736B732E6300A3
:105060004572726F723A25732C25640D0A00000098
:105070009C0000202DE9FF5F8346DDE90E879946FD
:1050800016468A469000FFF725F805001AD05420EE
:10509000FFF720F8040012D025630021CDE902417A
:1050A000CDE900874B46324651465846FEF7C0FDD3
:1050B0002046FEF775FC012004B0BDE8F09F2846AD
:1050C000FFF7D4F94FF0FF30F6E7000005484169DB
:1050D00019B1006B18B10020704701207047022001
:1050E000704700009C0000200148C0687047000025
:1050F0009C0000202DE9F0412D4F0026386B40B177
:10510000B869401CB861F86900B101263046BDE8B5
:10511000F081FD686D1CFD6011D1786B006828B1CD
:1051200040F6D91223A129A0FBF706F9786BB96BD9
:105130007963B863386A401C3862FEF7FFFEB86ACC
:10514000DFF89880854209D3786B006880B1786B6E
:10515000C068C468606885420DD2B8623868C06AA9
:1051600000EB800158F821000128CCD90126CAE7BC
:105170004FF0FF30F1E7201DFFF7DAF8A06A18B111
:1051800004F11800FFF7D4F8E06A01213A69814080
:105190001143396100EB800108EB8100211DFFF70D
:1051A000FFF8E06A3968C96A8842CDD30126CBE7A7
:1051B0009C0000202E2E5C4672656552544F535C55
:1051C0007372635C7461736B732E63004572726FEC
:1051D000723A25732C25640D0A0000006CA400208F
:1051E00070B504004FF000063CD01F4D2868844283
:1051F00005D040F6C7621DA122A0FBF79DF8A06C68
:1052000028B940F6C96219A11EA0FBF795F8A06C59
:10521000401EA064626CE16A914223D010BB201D45
:10522000FFF786F81B49012250B9E06A00EB8003C2
:1052300051F8233023B92B6902FA00F083432B6124
:10524000606CE062C0F10800A061E06A2B698240F6
:105250001A432A6100EB800001EB8000211DFFF75B
:105260009FF80126304670BD9C0000202E2E5C4623
:1052700072656552544F535C7372635C7461736BF7
:10528000732E63004572726F723A25732C25640D7C
:105290000A0000006CA400202DE9F041C068C46839
:1052A0002CB940F6613216A11BA0FBF745F804F1BA
:1052B00018000746FFF73CF81B4D286B012660B12C
:1052C00039461A48FFF76CF8E06A2968C96A8842CB
:1052D00014D90120EE61BDE8F081201DFFF728F808
:1052E000E06A2A6906FA00F1114329610F4900EBCF
:1052F0008000C83901EB8000211DE3E70020EAE7C8
:105300002E2E5C4672656552544F535C7372635C1B
:105310007461736B732E63004572726F723A2573FA
:105320002C25640D0A0000009C00002034A50020FC
:105330002DE9F0472B4D00242746286B28B94FF460
:10534000FD6229A12EA0FAF7F7FFFFF735F8286BC9
:10535000401E2863286BE8BBA8682D490126C8B306
:10536000A1F1C8098846D8F80010E9B1D8F80C00B6
:10537000C46804F11800FEF7DBFF201DFEF7D8FF1C
:10538000E06A2A6906FA00F11143296100EB800105
:1053900009EB8100211DFFF703F8E06A2968C96A5B
:1053A0008842E0D3EE61DEE70CB1FEF7C7FDAC69E1
:1053B0003CB1FFF79FFE00B1EE61641EF9D1002001
:1053C000A861E86930B11349012738070860BFF3C5
:1053D0004F8F00E001E0BFF36F8FFFF71FF83846F3
:1053E000BDE8F0879C0000202E2E5C467265655259
:1053F000544F535C7372635C7461736B732E630000
:105400004572726F723A25732C25640D0A000000F4
:1054100034A5002004ED00E02DE9F0470746994649
:1054200016460D462820DDF820A0FEF753FE0400A6
:1054300014D0B8464F46D1462DB94FF4C67209A1D3
:105440000FA0FAF779FFFEF713FB04F11801C4F877
:10545000008081E8E002201DFEF787FF2046BDE8BE
:10546000F08700002E2E5C4672656552544F535CE7
:105470007372635C74696D6572732E630000000063
:105480004572726F723A25732C25640D0A00000074
:105490001CB50024FEF7ECFA0C48006868B10B4913
:1054A0000720091DCDE9000100234FF4807208A1F7
:1054B0000948FFF7DFFD040005D140F2331207A1D0
:1054C0000DA0FAF739FF20461CBD0000D8000020CF
:1054D000546D722053766300414000082E2E5C46C6
:1054E00072656552544F535C7372635C74696D6589
:1054F00072732E63000000004572726F723A25735A
:105500002C25640D0A0000002DE9FE4FDDF830A0C7
:10551000994690460D4606004FF0000705D14FF41E
:10552000D37211A117A0FAF707FF1A4C206880B1B7
:10553000CDE900580296062D10DAFFF7C7FD0228C4
:105540004FF0000308D0002269462068FFF724FCD2
:1055500007463846BDE8FE8F5246F5E700234A4627
:105560006946FFF7D5FCF3E72E2E5C46726565525F
:10557000544F535C7372635C74696D6572732E6310
:10558000000000004572726F723A25732C25640D7D
:105590000A000000D80000204FF04070E1EE100A31
:1055A0007047000000000000000000000000000044
:1055B00000003F40000000000000000030004000FC
:1055C00030004000000009000BC03D000BC03D0052
:1055D000090018C024407FE02240318000001800FC
:1055E00024C01B000D803240018003801C402740F6
:1055F0001C80074000401000600000000000000018
:1056000000000000000000001F802040402000003B
:10561000402020401F8000000000090006001F807D
:10562000060009000000040004003F80040004009C
:1056300000000010006000000000000000000400F6
:10564000040004000400040000000000004000000A
:10565000000000000000002001C0060038004000EB
:1056600000001F802040204020401F8000000000DC
:1056700010403FC000400000000018C02140224000
:1056800024401840000010802040244024401B800B
:10569000000002000D0011003FC0014000003C80EE
:1056A000244024402440238000001F8024402440C4
:1056B0003440038000003000200027C03800200064
:1056C00000001B802440244024401B8000001C005C
:1056D00022C0224022401F8000000000000008403D
:1056E0000000000000000000000004600000000056
:1056F0000000000004000A00110020804040090062
:105700000900090009000900000000004040208055
:1057100011000A0004001800200023402400180093
:1057200000001F802040274029401F40000000400B
:1057300007C039000F0001C0004020403FC0244096
:1057400024401B8000001F802040204020403080EB
:10575000000020403FC0204020401F80000020402B
:105760003FC024402E4030C0000020403FC02440B5
:105770002E00300000000F001080204022403380B7
:10578000020020403FC0040004003FC020402040F1
:1057900020403FC02040204000000060202020200A
:1057A0003FC02000200020403FC024400B0030C0FC
:1057B000204020403FC020400040004000C03FC08B
:1057C0003C0003C03C003FC0000020403FC00C40F4
:1057D00023003FC020001F802040204020401F8029
:1057E000000020403FC024402400180000001F801B
:1057F0002140214020E01FA0000020403FC0244065
:10580000260019C0004018C02440244022403180A6
:105810000000300020403FC0204030000000200049
:105820003F80004000403F80200020003E0001C03B
:10583000070038002000380007C03C0007C03800CF
:105840000000204039C0060039C020400000200080
:10585000384007C0384020000000304021C02640BA
:10586000384020C00000000000007FE040204020C1
:105870000000000070000C000380004000000000E9
:10588000402040207FE00000000000002000400099
:105890002000000000000010001000100010001098
:1058A00000100000000040000000000000000000A8
:1058B00002800540054003C0004020003FC0044076
:1058C00004400380000000000380044004400640C0
:1058D000000000000380044024403FC0004000005E
:1058E00003800540054003400000000004401FC045
:1058F000244024402000000002E0055005500650DE
:10590000042020403FC00440040003C000400000C9
:10591000044027C0004000000000001000100410E8
:1059200027E00000000020403FC00140070004C005
:105930000440204020403FC000400040000007C01D
:10594000040007C0040003C00000044007C0044076
:10595000040003C0004000000380044004400380B2
:105960000000041007F00450044003800000000011
:1059700003800440045007F00010044007C00240B8
:10598000040004000000000006400540054004C07B
:105990000000000004001F800440004000000400DC
:1059A00007800040044007C000400400070004C016
:1059B000018006000400060001C0070001C00600C7
:1059C0000000044006C0010006C0044000000410AE
:1059D000071004E00180060004000000044005C038
:1059E0000640044000000000000004007BE040206E
:1059F0000000000000000000FFF0000000000000B8
:105A000040207BE0040000000000400080004000D7
:105A10002000200040000000000000000000000006
:105A20000000000000000000000000001FCC000C7F
:105A300000000000000000000800300060000800C6
:105A4000300060000000022003FC1E20022003FC46
:105A50001E200220000000000E1811043FFF1084D9
:105A60000C78000000000F0010840F3800C0077889
:105A700018840078000000780F8410C411240E9858
:105A800000E40084000808006800700000000000C6
:105A900000000000000000000000000007E01818EF
:105AA000200440020000000040022004181807E013
:105AB0000000000000000240024001800FF0018061
:105AC0000240024000000080008000800FF800804B
:105AD0000080008000000001000D000E00000000AA
