:020000040800F2
:10000000981600207D020008BD130008990C000816
:100010004B130008610800089D2300080000000041
:10002000000000000000000000000000431E000867
:1000300005090008000000006D140008ED1F00080D
:10004000212500089702000897020008C11B00083C
:100050009702000897020008990900089702000813
:10006000970200089702000897020008970200080C
:1000700097020008970200089702000897020008FC
:1000800097020008970200089702000897020008EC
:1000900097020008970200089702000897020008DC
:1000A00097020008970200089702000897020008CC
:1000B00097020008970200089702000897020008BC
:1000C00097020008970200089702000897020008AC
:1000D00097020008B521000897020008970200085F
:1000E000970200084D1800089702000897020008C0
:1000F000970200089702000897020008970200087C
:1001000097020008891C000897020008970200085F
:10011000970200089702000897020008970200085B
:10012000970200089702000897020008970200084B
:10013000970200089702000897020008970200083B
:10014000970200089702000897020008970200082B
:10015000970200089702000897020008970200081B
:10016000970200089702000897020008970200080B
:1001700097020008970200089702000897020008FB
:10018000970200089702000800F002F800F067F8F4
:100190000AA090E8000C82448344AAF10107DA45E2
:1001A00001D100F05CF8AFF2090EBAE80F0013F0CD
:1001B000010F18BFFB1A43F001031847A8570000AE
:1001C000C85700000A444FF0000C10F8013B13F030
:1001D000070408BF10F8014B1D1108BF10F8015BA0
:1001E000641E05D010F8016B641E01F8016BF9D193
:1001F00013F0080F1EBF10F8014BAD1C0C1B09D1EA
:100200006D1E58BF01F801CBFAD505E014F8016B5B
:1002100001F8016B6D1EF9D59142D6D370470000ED
:100220000023002400250026103A28BF78C1FBD8FF
:10023000520728BF30C148BF0B607047642900F0E7
:10024000A980782900F0E280732900F072820020F2
:1002500070471FB503F04EFF1FBD10B510BD00F075
:10026000CDFA1146FFF7F5FF03F0D0FC00F0EBFAF2
:1002700003B4FFF7F2FF03BC02F06DF909488047B1
:1002800009480047FEE7FEE7FEE7FEE7FEE7FEE778
:10029000FEE7FEE7FEE7FEE704480549054A064B90
:1002A000704700006D2000088901000898100020A8
:1002B0009816002098120020981200207047000025
:1002C0000FB4044910B503AA029800F037FA10BC25
:1002D0005DF814FBAC0000202DE9F0410E46044609
:1002E000002020622046E168884730B3252805D0E9
:1002F000D4E901219047206A401CF2E7E1682046DA
:1003000000278847050018D0A5F14100192802D818
:1003100020354FF400673246294620462760FFF714
:100320008DFF40B1012804D0F61D26F007060836DF
:10033000D8E7361DD6E72846DAE7206ABDE8F0811F
:1003400070B50C460546012A05D02878800600D5F0
:10035000EA69002302E0012305E05B1C934202D21C
:10036000E05C0028F9D1A869E618C01AA861286ADB
:10037000184428622846AFF3008004E0D5E9012143
:1003800014F8010B9047B442F8D32846AFF300802D
:1003900070BD00002DE9F041064600241068752963
:1003A000314616A510D0AFF30080002802DA404293
:1003B00013A507E031688A0701D512A502E04907B5
:1003C00004D511A5012401E0AFF3008000210A2229
:1003D00006F1240709E0B0FBF2FCB0FBF2F302FBEC
:1003E0001C00303078541846491C0028F3D12346AD
:1003F0002A463046BDE8F04100F030B90000000068
:100400002D0000002B0000002000000070B5044605
:100410000D4621461068AFF300802188090502D5FA
:100420000F4A7A4402E00E4A7A440E32002104F167
:10043000240305E000F00F060009965D5E54491C98
:100440000028F7D120780023000704D5702D02D0B2
:1004500009B1022311322046BDE8704000F0FEB819
:10046000F654000010B5431C02E010F8011B71B1F6
:100470008107FAD14FF0013202C88C1A8C4314EA7A
:10048000C211F9D0C01A0A0603D0C01E10BDC01A8E
:1004900010BD0A0401D0801E10BD0902FCD0401E10
:1004A00010BD40EA010370B59B072ED14FF0013615
:1004B000042A2AD308C810C99D1B9D43121F15EAA0
:1004C000C61517D0D8B2E1B2401A50EA056110D172
:1004D00098B2A1B2401A50EA05410AD123F07F40F8
:1004E00024F07F41401A50EA052102D1180EA0EBFA
:1004F000146070BDA342DBD018BA21BA884201D97A
:10050000012070BD4FF0FF3070BD0AB9002070BDF2
:1005100010F8013B11F8014B63B1A3420AD1521EFE
:1005200008D010F8013B11F8014B1BB1A34201D1D7
:10053000521EEDD1181B70BD032A40F2308010F01E
:10054000030C00F0158011F8013BBCF1020F62446E
:1005500098BF11F801CB00F8013B38BF11F8013BFF
:10056000A2F1040298BF00F801CB38BF00F8013BAC
:1005700011F0030300F0F480083AC0F0088051F84D
:10058000043B083A51F804CBA0E80810F5E7121D27
:100590005CBF51F8043B40F8043BAFF30080D20746
:1005A00024BF11F8013B11F801CB48BF11F8012B12
:1005B00024BF00F8013B00F801CB48BF00F8012B35
:1005C00070474FF000020429C0F0128010F0030CB5
:1005D00000F01B80CCF1040CBCF1020F18BF00F836
:1005E000012BA8BF20F8022BA1EB0C0100F00DB8E5
:1005F0005FEAC17C24BF00F8012B00F8012B48BF43
:1006000000F8012B70474FF0000200B513469446E6
:100610009646203922BFA0E80C50A0E80C50B1F15A
:100620002001BFF4F7AF090728BFA0E80C5048BF6E
:100630000CC05DF804EB890028BF40F8042B08BF0C
:10064000704748BF20F8022B11F0804F18BF00F808
:10065000012B704770477047704770472DE9F0478E
:100660000D4699469246044600F124080168880622
:1006700004D5E06921F01001216000E00120A842CA
:1006800001DD471B00E00027A1697A1902EB090090
:10069000081AA0612078C00602D42046AFF300807B
:1006A000002608E0D4E901211AF806009047206AE4
:1006B000401C761C20624E45F4DB2078C0060AD52B
:1006C0002046AFF3008006E0D4E9012130209047B6
:1006D000206A401C2062381EA7F10107F4DC07E005
:1006E000D4E9012118F805009047206A401C2062D7
:1006F000281EA5F10105F3DC2046AFF30080207829
:10070000000602D50220BDE8F0870120FBE710B506
:10071000436913B1AFF3008001E0FFF711FE012040
:1007200010BD127800F124010A7000224A700122E3
:10073000EDE711684FF0FF32E9E70000074B70B5B5
:100740000D467B4400F043F80446284600F052F87A
:1007500010B14FF0FF3070BD204670BDF71F000094
:1007600010B5203AC0F00B80B1E81850203AA0E84C
:100770001850B1E81850A0E81850BFF4F5AF5FEA80
:10078000027C24BFB1E81850A0E8185044BF18C933
:1007900018C0BDE810405FEA827C24BF51F8043BDA
:1007A00040F8043B08BF7047D20728BF31F8023B2E
:1007B00048BF11F8012B28BF20F8023B48BF00F8C2
:1007C000012B704701694A1C02610878704700B527
:1007D0008FB0CDE901310021059105497944CDE97A
:1007E000031011466846FFF777FD0FB000BD00000B
:1007F000E5FFFFFF007B00F080007047754600F0CA
:100800002BF8AE4605006946534620F007008546A2
:1008100018B020B5FFF740FDBDE820404FF00006BE
:100820004FF000074FF000084FF0000B21F00701D8
:10083000AC46ACE8C009ACE8C009ACE8C009ACE81B
:10084000C0098D46704710B50446AFF300802046BE
:10085000BDE81040FFF70CBD004870473410002081
:10086000FEE7000010B504461349086810F0450F74
:10087000FBD0042001F0FEF920B1042001F0F4F9CE
:10088000032010BD012001F0F5F920B1012001F095
:10089000EBF9012010BD084824380068A04201D0BF
:1008A000102010BD40F2FF5001F0DEF90248203860
:1008B00000680249084010BD342C014008E0FFFDEB
:1008C0002DE9F0410746069E884614461D46142031
:1008D00003F050FAC0F808804760002101600482EC
:1008E00085742EB1FF21C174BDE8F04101F0D2BF83
:1008F000034A126804FB0522C260C174F4E70000D9
:10090000240000207047000030B589B0012108465E
:1009100000F0ECFD0121102000F02EFE00240794D1
:10092000012008900220069005904FF4C0600490CA
:10093000174D04A9284600F00CF907220A21284681
:1009400000F045F907220921284600F040F94FF44C
:10095000E1300090ADF80440ADF80640ADF8084035
:10096000ADF80C400C20ADF80A000A4C6946204650
:1009700001F0AEFC00F023FD012240F2255120469B
:1009800001F08BFC0121204601F054FC09B030BD80
:10099000000002400010014010B50A48017800290B
:1009A00005D00021017008A0FFF78AFC04E00121B6
:1009B000017009A0FFF784FCBDE81040012000F0A1
:1009C00011B80000500000204B45595F555020449D
:1009D0006F776E0A000000004B45595F5550205557
:1009E000700A00000149086070470000143C014093
:1009F00030B51B4AC3680168002B2AD013688B43AB
:100A00001360111D0B680468A3430B604168114417
:100A10000B68046823430B60114C08342168036899
:100A200099432160231D19680568A94319608168ED
:100A3000102905D011440A68006802430A6030BDDD
:100A40002168026811432160196800680143196038
:100A500030BD4068104402688A43026030BD000027
:100A6000003C01408000A0F1C040002904D0016892
:100A700041F00101016070470168024A11400160C4
:100A800070470000FEFF0F0010B5D0E901121143BE
:100A9000D0E903231A431143426911438269114388
:100AA000C2691143026A1143426A1143826A1143C7
:100AB000C26A1143026B114302689200A2F1C04264
:100AC00011608168082907D101688900A1F1C0413E
:100AD0000A6842F040020A60416BD1E9002342EA11
:100AE00003128B688C891B0243EA04431A430B8A66
:100AF00042EA03520B7D896942EA03620A430168B4
:100B0000491C8900A1F1C0410A60C16AB1F5804F5A
:100B100008D000686FF070418000A0F1C040C0F8BC
:100B2000041110BD816BD1E9002342EA03128B68E6
:100B30000C8A1B0243EA04531A430B7D896942EA7B
:100B4000036200680A438000A0F1C040C0F804219D
:100B500010BD2DE9F041002201274FF0030C07FAE8
:100B600002F50B682B40AB422CD1066853000CFAFF
:100B700003F4A64306604E68D0F800809E4046EA23
:100B8000080606604E68012E01D0022E12D186683A
:100B9000A64386608E68D0F808809E4046EA080624
:100BA00086604668AE43466045688E899640B6B218
:100BB00035434560C568A543C5600C699C40C36862
:100BC0001C43C460521C102AC9D3BDE8F08110B583
:100BD0004B07DB0E9A40C90800EB8100016A0F2425
:100BE0009C40A1430162016A1143016210BD0246AB
:100BF000002012690A4200D00120704741837047EB
:100C0000018370472DE9FC4105460E4617461C46F8
:100C100000200190012000F049FD00F0B3FD01909B
:100C20000198012800D0FEE71849086840F080507C
:100C300008601749086840F440400860002000F050
:100C40002BFD4FF4805000F053FD4FF4A05000F006
:100C500045FD3B46324629464FF48000009400F0A3
:100C600057FD012000F04EFD392000F0F1FC002876
:100C7000FAD0084940F205700860022000F078FDC3
:100C800000F002FD0828FBD1BDE8FC81403802409D
:100C900000700040003C0240FEE7000070B50024F8
:100CA000064D06E0037BC27A018905A0FFF708FB29
:100CB000641C55F824000028F4D170BD8800002081
:100CC00073697A653A256420667265653A25642001
:100CD0006D696E693A25640D0A00000010B50021A7
:100CE000034801F07BFBBDE8104001F099BD000016
:100CF000F50C000810B50B46114600280AD0022852
:100D00000AD0032802D04FF0FF3010BD184601F082
:100D1000DBF901E001F084FD002010BD70B505464F
:100D20000024084908884E8846430021084600F000
:100D3000F1F900F0B9FA044901E00D80641CB442F5
:100D4000FBD370BD181000200000086C70B410496F
:100D50004FF430534FF428524FF42C544FF4F075A5
:100D60004FF4487600280AD0012088710B814A810F
:100D70008C810E804D8070BC002000F04FB90020A7
:100D800088710B814A818C810D804E80F3E70000D1
:100D90001810002030B504460D46114B588900F05C
:100DA0007DFA200A00F074FA5889401C80B200F0E5
:100DB00075FAE0B200F06CFA988900F06FFA280A30
:100DC00000F066FA9889401C80B200F067FAE8B239
:100DD00000F05EFA034918890880881C028030BD43
:100DE00018100020FEFF076C2DE9F0438146079F95
:100DF0000C469846A2EB0900401C86B20A4D0EE054
:100E00002146484600F086F900F04EFA002202E042
:100E10002F80521C92B2B242FAD3641CA4B2444551
:100E2000EED9BDE8F08300000000086C2DE9F04326
:100E3000A3B001217A2000F059FB0121084600F0FF
:100E400071FB02251E9501261F96002421942095F2
:100E500022961EA96448FFF77CFE4CF233701E9068
:100E60001F952194032720972296DFF880811EA9E1
:100E70004046FFF76EFE4FF680701E901F9521943E
:100E800020972296DFF868911EA94846FFF761FE79
:100E900028031E901F952194209722961EA9404654
:100EA000FFF757FE80201E901F95219420972296D1
:100EB0001EA94046FFF74DFE0C2200214046FFF7D9
:100EC00086FE0C2201214046FFF781FE0C22042100
:100ED0004046FFF77CFE0C2205214046FFF777FED7
:100EE0000C2208214046FFF772FE0C2209214046E1
:100EF000FFF76DFE0C220A214046FFF768FE0C2228
:100F00000E214046FFF763FE0C220F214046FFF7FB
:100F10005EFE0C2207214846FFF759FE0C220821ED
:100F20004846FFF754FE0C2209214846FFF74FFEC2
:100F30000C220A214846FFF74AFE0C220B214846A4
:100F4000FFF745FE0C2211464846FFF740FE0C22F3
:100F50000D214846FFF73BFE0C220E214846FFF7C5
:100F600036FE0C220F214846FFF731FE0C220D21E0
:100F70004046FFF72CFE0C2207214046FFF727FED4
:100F80000F20089009943C200A900B940C940D9427
:100F90000E94092001900294082003900494059473
:100FA0000694079406200F9010941194102012902C
:100FB000139415941494169417940002189019948D
:100FC00080001A901B9408A81C9001A81D900FA8DF
:100FD000FFF75AFD01210620FFF744FD01F0C0FD97
:100FE00023B0BDE8F083000000040240000C024082
:100FF0000010024008B5034800880090BDF80000CA
:1010000008BD00000000086C10B500F047F905208D
:1010100001F02CFBBDE81040FFF7ECBF10B500213C
:101020003B4B9A88A2F51344413C0FD0A2F5D04423
:10103000043C0BD0A2F5A644103C07D0A2F5AA446C
:10104000103C03D0A2F5C854633C60D1082812D2EA
:10105000DFE800F0110406080A0C0E1080210AE0F7
:10106000402108E0C02106E0202104E0602102E0E8
:10107000A02100E0E0214FF4585000F01FF95889FA
:1010800000F00CF9002000F003F95889401C80B2F0
:1010900000F004F9002000F0FBF85889801C80B2B1
:1010A00000F0FCF81888401EC0F30F2000F0F0F8A4
:1010B0005889C01C80B200F0F1F81878401EC0B208
:1010C00000F0E6F8988900F0E9F8002000F0E0F878
:1010D0009889401C80B200F0E1F8002000F0D8F8B8
:1010E0009889801C80B200F0D9F85888401EC0F35F
:1010F0000F2000F0CDF89889C01C80B200F0CEF827
:101100009878BDE81040401EC0B200F0C1B810BDD4
:101110001810002010B503460C460F4A508900F005
:10112000BDF8180A00F0B4F85089401C80B200F0F5
:10113000B5F8D8B200F0ACF8908900F0AFF8200A0A
:1011400000F0A6F89089401C80B200F0A7F8E0B249
:10115000BDE8104000F09CB8181000202DE9F84FB1
:1011600082460C461F46A346780701D0012000E0C6
:10117000002000EBD70079084843C0B20090203A25
:1011800002F0FF09002649E00C2F14D0102F19D0CF
:10119000182F46D1244909EBC90001EB8000855D79
:1011A0004FF00008280612D52048214602885046F4
:1011B000FFF7F0FD13E01E4909EB490001EB800049
:1011C000855DEDE71B4800EB0910855DE8E70A98AF
:1011D00028B91648214642885046FFF7DBFD6806CD
:1011E000050E641CA4B214484088A04219D9A4EB8F
:1011F0000B00B84209D15C460AF1010A1FFA8AFACB
:101200000D48008850450CD906E008F1010808F0A7
:10121000FF08B8F1080FC5D3761CF6B200988642D5
:10122000B2D3BDE8F88F0000624B00081E01002019
:10123000FE40000872450008181000202DE9F84F04
:101240000446DDE90A760D4604F0FF0810191FFA7E
:1012500080F958191FFA80FA4FF0000B11E04C4545
:1012600002D34446E81985B255450FD23B4629467C
:101270002046CDF800B0FFF771FF04EB570084B2B1
:10128000761C3278A2F120005E28E8D9BDE8F88FFC
:1012900001490880704700000000086C014908807F
:1012A00070470000FEFF076C024803490089088070
:1012B0007047000018100020FEFF076C024A1080E3
:1012C000901C018070470000FEFF076C064807492C
:1012D0000160C02141600122826000210161426100
:1012E000C16001F063BA00004C0100200000024020
:1012F000074B002806D0012809D10A46802118464C
:1013000001F088BA0A464021184601F083BA7047B6
:101310000000024010B501210020FFF7E9FF002185
:101320000120FFF7E5FF4FF4FA74204601F090F931
:1013300001210846FFF7DCFF00210846FFF7D8FF30
:101340002046BDE8104001F083B9FEE770B50446C1
:101350000D4608A0FEF7B4FF34B908E055F8242084
:10136000214608A0FEF7ACFF641E601CF6D10020E9
:1013700070BD000068656C6C6F206D6F6E69746F76
:10138000720D0A00B2CECAFD25643A2025730D0AFB
:101390000000000010B5002002F066FC00280CD010
:1013A00001F0D6F90446012002F05EFC204601F06F
:1013B00009F9BDE8104002F03BBD10BD70471CB5F7
:1013C0004FF4A06000F042F825208DF800000320C3
:1013D0008DF801008DF8020001200190684600F0B0
:1013E00001F81CBD30B50F23426801250178002AA1
:1013F0001FD0154A126802F4E062C2F5E062C2F33F
:101400000722C2F10404D3404278A24084781C40F1
:101410001443220101F1E02181F80024007800F05A
:101420001F018D404009800000F1E020C0F800510C
:1014300030BD01F01F0085404809800000F1E02028
:10144000C0F8805130BD00000CED00E002490843B7
:1014500002490860704700000000FA050CED00E04A
:10146000014908627047000000000E42704700000A
:1014700010B50121034800F0B1FFBDE8104000F0B5
:1014800017B800008914000810B50B461146002853
:101490000AD002280AD0032802D04FF0FF3010BD36
:1014A000184600F03DFE01E000F002F8002010BDFB
:1014B0001CB547F6FF7000904FF4F0734FF496722E
:1014C0004FF48C71C820FFF78FFC182105A0CDE9DF
:1014D00000100B4646224FF4AF71DC20FFF7AEFE42
:1014E0001CBD0000506F706F75740000054A002924
:1014F00003D0116801431160704711688143116086
:101500007047000030380240054A002903D01168B6
:1015100001431160704711688143116070470000FA
:1015200034380240054A002903D011680143116094
:1015300070471168814311607047000038380240DD
:10154000054A002903D011680143116070471168F2
:10155000814311607047000040380240054A00296D
:1015600003D0116801431160704711688143116015
:101570007047000020380240054A002903D0116856
:10158000014311607047116881431160704700008A
:1015900044380240054A002903D011680143116014
:1015A0007047116881431160704700002438024081
:1015B00070B5244B196801F00C01234C00291ED092
:1015C000661004291DD008291DD00460196801F097
:1015D000F00109091D4A545C0168E14041601C6842
:1015E00004F4E054A40A145D21FA04F484601B6836
:1015F00003F460435B0BD25CD140C16070BD0460FA
:10160000E4E70660E2E70F4A121F1168C1F3805554
:10161000116801F03F0135B1B6FBF1F11468C4F374
:101620008814614305E0B4FBF1F11468C4F3881435
:1016300061431268C2F30142521C5200B1FBF2F145
:101640000160C3E7083802400024F40014000020C1
:1016500002460020510901290BD002290DD0094969
:10166000096802F01F02012393400B4200D00120C1
:101670007047044974390968F3E70249091F09688A
:10168000EFE70000743802400248006800F00C00E8
:101690007047000008380240034A116821F0F00149
:1016A00001431160704700000838024002490022DF
:1016B0000A70087070470000023802400649002294
:1016C0000A700A70012804D0042801D1052008708E
:1016D000704701200870704770380240034A116853
:1016E00021F4E051014311607047000008380240C6
:1016F000034A116821F4604141EAC000106070475C
:10170000083802400149086670470000000047425F
:1017100010B5029C41EA82114FF0FF3202EB5302F6
:1017200041EA0241014341EA04600149086010BDF9
:101730000438024001490860704700003C0E4742EF
:10174000C0F30121032907D1074B196821F4F812CE
:101750000649014011431960034A68321168C0F319
:101760000B0001431160704708380240FFFCFF0F77
:10177000034A116821F00301014311607047000022
:101780000838024018B5002000904FF4A0443120E2
:10179000FFF75EFF0099491C00910099A14201D01A
:1017A0000028F4D03120FFF753FF08B1012018BD05
:1017B000002018BD0649002804D0086840F0040045
:1017C00008607047086820F0040008607047000057
:1017D0000008065001460020024A12680A4200D062
:1017E000012070470408065070B5002401214020F4
:1017F000FFF78AFE0120FFF7DDFF42F2107504E0DB
:10180000641CA4B2642000F023FF0120FFF7E2FF74
:1018100008B9AC42F4D3AC4206D36D2203A108A0B0
:10182000FEF74EFD012070BD002070BD2E2E5C48DD
:10183000415244574152455C7379732E6300000056
:1018400045525225732025640D0A000010B54FF44F
:101850008074204600F08CF8012805D1204600F065
:101860002BF804A0FEF72CFDBDE810404FF400302B
:10187000FFF7B8B8414C41524D2D2D416674657249
:1018800020776F726B2121210D0A0000010901EB05
:101890008101490000F00F000844C0B270470021E8
:1018A00003E0491CC9B20A38C0B20A28F9D20907B4
:1018B00040EA11607047000080B240F08000C143F0
:1018C0000348026802F08002114301607047000083
:1018D0000C28004008B5002000900E49086840061A
:1018E00015D44FF0FF3008608B13086800F04000FB
:1018F000009A521C0092009A9A4201D00028F4D01B
:101900000868400601D5012008BD002008BD01205F
:1019100008BD00000C2800400248016821F0800149
:10192000016070470C28004010B502460C460E4876
:1019300001680E480140080CE070C1F30423637095
:1019400001F03F03A370C1F342312170002A0AD194
:10195000FFF79CFFE0706078FFF798FF6070A07859
:10196000FFF794FFA07010BD042800403FFFFF0068
:101970000246002003490968034B1940114200D078
:10198000012070470C2800407F3F010010B502463F
:101990000C460F4801680F480140C1F30540207014
:1019A000C1F30623637001F07F03A37001F480018B
:1019B000090CE170002A0AD1FFF768FF20706078F7
:1019C000FFF764FF6070A078FFF760FFA07010BDA4
:1019D000002800407F7F7F0070B504460025114E2F
:1019E000CA20306053203060FFF774FFA8B10D4863
:1019F0001C38016821F04001016001682268114330
:101A000001600848A168143801600168A28841EAB1
:101A100002410160FFF780FF0125FF20306028466A
:101A200070BD00002428004008B5034901EB800088
:101A300000900098006808BD5028004070B5054629
:101A40000C460026002D06D16078C10603D520F093
:101A500010000A3060702DB16078FFF717FFA07892
:101A6000FFF714FF55B1A078E17840EA01456078AE
:101A70002178000240EA413005430FE0E078FFF7AB
:101A80000EFF05046078FFF70AFF45EA0025A078FD
:101A9000FFF705FF0543207845EA40350E4CCA2084
:101AA000206053202060FFF715FF88B10B480540E8
:101AB000094820380560FFF72FFF07481C380068E9
:101AC000800604D400F0A0F810B1012600E0012641
:101AD000FF202060304670BD242800403FFFFF00FB
:101AE0002DE9F04105460C4600260020244F002D2C
:101AF00006D03968490608D52078FFF7C7FE05E00B
:101B00003968490602D4E07000E0E07055B1A07871
:101B1000217840EA01456078E178000240EA01401E
:101B200005430FE02078FFF7BAFE05046078FFF761
:101B3000B6FE45EA0025A078FFF7B1FE0543E07840
:101B400045EA00450E4CCA201C342060532020601A
:101B5000FFF7C0FE78B10B4805400948083805601A
:101B6000FFF7DAFE3868800604D400F04DF810B1B3
:101B7000012600E00126FF2020603046BDE8F0810C
:101B8000082800407F7F7F0008B58DF802208DF87F
:101B900001108DF800308DF8030069460020FFF732
:101BA0004DFF08BD08B58DF800008DF801108DF8C7
:101BB00002208DF8033069460020FFF791FF08BD31
:101BC0001CB54FF480642046FFF7D2FE01280ED1E9
:101BD0002046FFF771FE684600F0C8FD9DF8023010
:101BE0009DF801209DF8001004A0FEF769FBBDE8F8
:101BF0001C404FF48000FEF7F5BE000025643A2536
:101C0000643A2564200D0A0018B500200090104B9E
:101C1000CA201860532018600D491839086820F050
:101C2000A00008604FF40034086800F02000009A1B
:101C3000521C0092009AA24201D00028F4D00868F9
:101C4000800601D5012000E00020FF21196018BDA9
:101C50002428004008B5034A02EB80000090009859
:101C6000016008BD5028004001490860704700002D
:101C7000382C014001460020024A12680A4200D076
:101C800001207047342C014000F014B810B5084A08
:101C900001681160141D21686FF30A01D0E9012366
:101CA0001A43D0E9033003431A430A43226010BDAC
:101CB000082C01402DE9F0414FF48070FFF7DAFF66
:101CC000364C374D4CF23A3610B3A8780021012833
:101CD0000ED0A9603148001F016841F48071016095
:101CE0002068B04320600120E870A868BDE8F0815A
:101CF0002C4801600C22426040228260C1601101C8
:101D00000161FFF7C3FF0C20FEF7ACFDA860E1E71F
:101D10000220FFF7AFFF40B10220FFF7A5FF2068C8
:101D2000B04320600220A860E0E70820FFF7A2FF90
:101D300040B10820FFF798FF2068B04320600420DE
:101D4000A860D3E72020FFF795FF40B12020FFF7E0
:101D50008BFF2068B04320600620A860C6E71020F3
:101D6000FFF788FF40B11020FFF77EFF2068B043E7
:101D700020600520A860B9E74FF400773846FFF7E8
:101D800079FF40B13846FFF76FFF2068B04320600D
:101D90000720A860AAE70020A8E700003C2C01402B
:101DA000B0000020700D002070B505460A4C0221DD
:101DB000204600F01FF80028F9D02946204600F000
:101DC00022F80121204600F015F80028F9D020461D
:101DD00000F017F8C0B270BD00300140002904D0F7
:101DE000018841F0400101807047018821F04001E5
:101DF000018070470246002012890A4200D001206B
:101E00007047808970478181704730B5028802F43D
:101E100041530A884C88CD8822438C882C43224326
:101E20000C8922434C8922438C892243CC8922434A
:101E30001A430280828B22F400628283098A018223
:101E400030BD704710B58A07120F0F23934021F061
:101E500003040649214401F608010C689C430C6008
:101E60000B68904003430B6010BD00000030014040
:101E700010B5054C034B247853F8243098470020C4
:101E800010BD000028100020240100200CB5002205
:101E9000019200922749086840F4803008604FF4AE
:101EA000A043086800F4003000900198401C0190A5
:101EB000009810B901989842F3D10868800302D5C0
:101EC0000120009000E000920098012831D11948CB
:101ED0004030026842F0805202601748026842F4C3
:101EE000404202601348083002680260026842F40F
:101EF00000420260026842F4A0520260021F0F4BCF
:101F000013600A6842F080720A600A689201FCD588
:101F10000B4A40F205711160016821F00301016074
:101F2000016841F0020101600168C1F381010229E9
:101F3000FAD10CBD00380240007000400854400740
:101F4000003C02407CB540F2CF10FEF7E7FE4FF6B2
:101F5000E0704FF496740090B423224678216420F8
:101F6000FEF742FF0FA01823CDE90030642287213D
:101F70009620FFF763F94BF640404FF4BE75009092
:101F80004FF4E1732A462146DC20FEF72DFF1F2087
:101F9000009040F28A232A464FF4FA71DC20FEF7C3
:101FA00023FF7CBD536574757000000010B50021DF
:101FB000034800F013FABDE81040FFF7C3BF00006C
:101FC000C51F000810B50B46114600280AD002288C
:101FD0000AD0032802D04FF0FF3010BD184600F0A1
:101FE000C1F801E0FFF7AEFF002010BD10B50D4CA9
:101FF00020680D4900F0030001EBC00000F0CCFAAE
:102000002068401C20606068401C6060A068401C24
:10201000A0602068002803D1BDE8104000F00ABB92
:1020200010BD0000240000202C0100200D484FF4BA
:102030007A710068B0FBF1F0401EB0F1807F01D3EF
:1020400001200AE04FF0E0214861074AF0201070BB
:1020500000208861072008610020002800D0FEE7EA
:10206000704700000000002023ED00E010B512488A
:10207000016841F4700101601048016841F00101FC
:1020800001600E4A00210832116002680C4B1A40B0
:102090000260031D0B4A1A60026822F4802202606B
:1020A00006480C300160FFF7F1FE03494FF0006075
:1020B0008039086010BD000088ED00E00038024063
:1020C000FFFFF6FE10300024F0B482B2030C4FF094
:1020D000FF340020114D05EB00110E6896420ADC1A
:1020E0004E689E4207DC8E68964204DBC9689942BE
:1020F00001DB044602E0401C0228ECD334B1012C81
:1021000009D1F0BC0021012000F08AB9F0BC002107
:10211000022000F085B9F0BC70470000C0580008EC
:10212000F0B482B2030C00200D4C04EB00110E68D9
:1021300096420ADC4E689E4207DC8E68964204DBBB
:10214000C968994201DB054602E0401C0028ECD03A
:10215000002D02D1F0BC00F051B9F0BC7047000076
:10216000E058000870B582B2030C0020104C04EB5C
:1021700000110E6896420ADC4E689E4207DC8E68AB
:10218000964204DBC968994201DB054602E0401C27
:102190000228ECD31DB90021084600F041F9012DB9
:1021A00005D1BDE870400021022000F039B970BDB2
:1021B000F05800082DE9F041194F40F225513846FA
:1021C00000F04BF800281DD0384600F0DFF8C4B20C
:1021D000144E306A28B13846BDE8F04112A100F033
:1021E000EAB8104D243D298C481C28846C542146A3
:1021F000384600F0D4F80D2C06D095F8200000F0F9
:102200001F002884BDE8F08109A1384600F0D3F80A
:10221000044800212A8C2538115401203062F1E74E
:1022200000100140340D00204D4F4E20627573792F
:102230000D0A0000002904D0818941F400518181F8
:102240007047818921F40051818170470246002046
:1022500012880A4200D00120704770B5002440F671
:102260006A12C1F3421301F01F05012606FA05F2B6
:10227000012B0CD0022B0DD0838A1340090A8E400B
:10228000008830400BB100B10124204670BD838925
:102290001340F3E7038A1340F0E710B540F66A13E2
:1022A000C1F3421301F01F040121A140012B07D00B
:1022B000022B07D014303AB102680A43026010BD05
:1022C0000C30F8E71030F6E702688A43026010BD70
:1022D0007FB504460D46208A20F44051E888084323
:1022E0002082A08941F20C618843A9882A89114380
:1022F0006A8902431143A181A08A20F44071A88910
:102300000843A0826846FFF753F91E48844202D072
:102310001D48844201D1039800E00298A189090474
:1023200008D500EBC00101EB001029684900B0FBA3
:10233000F1F007E000EBC00101EB00102968890013
:10234000B0FBF1F06422B0FBF2F109010B096FF070
:1023500018056B4300EB8300A3891D044FF0320383
:1023600007D503EBC000B0FBF2F000F00700084314
:1023700006E003EB0010B0FBF2F000F00F000843A2
:1023800020817FBD00100140001401408088C0F30F
:1023900008007047C1F3080181807047FEE710B55F
:1023A00004462046FFF7F6FF80212046FFF74EFF48
:1023B0000028F9D010BD70B506460D460024304601
:1023C000295DFFF7ECFF641C285D0028F7D1402150
:1023D0003046FFF73BFF0028F9D070BD054A0029C1
:1023E00002D01178491C11700349127841F822007B
:1023F00070470000240100202810002005490878BB
:10240000002806D0401E0870002211461046FFF733
:102410002FBD7047240100200020FEF75FBC0000A4
:1024200070B504460D46012C07D800221146012044
:10243000FFF71EFD044A00201070044850F82420C5
:1024400028469047002070BD240100201059000844
:1024500010B50F480F4C04600121416081600022DB
:1024600002610322C260416100F0A0F9012211461D
:10247000204600F0CFF900F0FFF800F017F8064909
:1024800008800146BDE8104004A0FDF719BF000018
:102490004C010020000402401C010020666C6173A6
:1024A000685F49443A2025780D0A000070B5002481
:1024B000114E00220121304600F0ACF99020FFF7C8
:1024C00073FC0020FFF770FC0020FFF76DFC00207C
:1024D000FFF76AFCFF20FFF767FC44EA0025FF20B6
:1024E000FFF762FC40EA050401221146304600F085
:1024F00091F9204670BD000000040240014900200F
:1025000008607047082C004010B50121CC0220461D
:10251000FFF724F82046BDE810400021FFF71EB861
:10252000FFF7ECFFFFF7F0FF01A0FDF7C9FEFEE7A4
:102530005744472120706C205245530D0A0000007B
:10254000024900F07F00086070470000002C004046
:10255000C0B2FFF7F5BF704770B50B4D2C68002671
:102560000FE020682860616859B1A0688847E67468
:1025700018B1204600F08EF902E0204601F094FBED
:102580002C68002CEDD170BD40000020014800688F
:10259000704700002400002070B505460024084E56
:1025A00008E0C1683268914207D80168296000F0EC
:1025B0006DF9641C28680028F3D1204670BD000026
:1025C000240000202DE9FF4106460027202200219B
:1025D000304601F0CBFC0546681C11D02946304638
:1025E00001F0A4FC04462CB1691C6A46304601F097
:1025F00069FC07466CB169463846A047BDE8FF81D3
:102600003046FDF72FFF0146304601F08FFC0446AF
:10261000F0E702A0FDF754FEF0E70000636F6E6E76
:102620006F7420666F756E6420636F6D6D616E648C
:10263000210D0A0010B50548046803E0204600F0AB
:1026400029F92468002CF9D110BD000048000020B1
:1026500070B50646044C256801E001F0C9FB21680D
:10266000491BB142F9D370BD24000020C0EB00200B
:10267000401E411CFCD170472DE9F04385B02C4C25
:102680004FF4805901214846FEF776FF294F276015
:10269000382060604FF00208C4F8088000252561EA
:1026A0000320E06001266661204600F07FF80522E5
:1026B00003213846FEF78BFA052204213846FEF73F
:1026C00086FA052211463846FEF781FA012148466E
:1026D000FEF760FF00214846FEF75CFFADF80050B2
:1026E0004FF48270ADF80200ADF80450ADF80680EA
:1026F000ADF808607002ADF80A000820ADF80C00D3
:10270000ADF80E500720ADF810000B4C694620467E
:10271000FFF77BFB01212046FFF760FBFF20FFF75F
:1027200043FB01212046FFF759FB05B0BDE8F083CC
:102730004C010020000402400030014010B5044666
:10274000E1B20248FFF72BFE204610BD0010014009
:1027500010B505480146028C2430FDF7EDFE01F06E
:1027600061FB0148243010BD100D00201CB504464B
:1027700001A90020FFF70AF969460020FFF7D4F805
:102780009DF8020060719DF8040020709DF805001E
:1027900060709DF8010020719DF80600A0709DF802
:1027A0000000E0709DF80300A0711CBD70B50446E8
:1027B000164922680D15531ACE148A4215D008DC2A
:1027C000134952180DD0AA420DD0B24214D10420A0
:1027D00012E0AB420BD0B3420BD0B3F5406F0BD13C
:1027E00009E0012008E0022006E0082004E01020B3
:1027F00002E0202000E040200121FEF777FE211DAD
:102800002068BDE87040FEF7A4B90000000C02404B
:102810000000FEBF002A01D0FEF7F2B9FEF7EEB9C4
:102820002DE9FC4148F23040FEF778FA4FF61F04DC
:102830004FF49675B4232A46782164200094FEF75D
:10284000D3FA0FA11823CDE9003164228721962005
:10285000FEF7F4FC40F2FF716E004FF4C877009170
:102860003346B42239463220FEF7BEFA33464FF4DF
:10287000D772394628460094FEF7B6FABDE8FC81C7
:10288000486F6D657669657700000000FF21C174AF
:10289000AFF30080817C012908D00A2911D0642976
:1028A00013D0CC220BA111A0FDF70ABD124A017C66
:1028B00012681144114A01F0030102EBC10100F05A
:1028C0001FB80D490C3100F01BB80B49143100F052
:1028D00017B800002E2E5C48415244574152455CC7
:1028E000636C6B5F74696D65722E6300455252258F
:1028F000732025640D0A0000240000202C01002014
:10290000F0B40C462168827C002A15D0C37CFF2BD2
:1029100018D0184D038A2E6803FB0263C3602D682C
:1029200003F10A02AA4213D2FE21C1740146F0BC8F
:102930001048243000F032B8F0BCA1220EA114A03F
:10294000FDF7BEBC0146F0BC0A481C3000F026B8BA
:102950000A0001D00A6806E0206000210160F0BC96
:10296000704709680A6812B1D468A342F9D20860B6
:102970000260F4E7240000202E2E5C4841524457A8
:102980004152455C636C6B5F74696D65722E6300C8
:1029900045525225732025640D0A00000268002A62
:1029A00001D105E0024610680028FBD1116000E06B
:1029B000016000200860704710B586B0002108460D
:1029C000FFF740FA012400940020019008200290B3
:1029D00003946846FEF70CF806208DF810008DF879
:1029E000114002208DF81200059404A8FEF7FAFCAD
:1029F00006B010BD70B510211448FEF7F8F8144C5D
:102A0000002548B1E078B0B112A0FDF759FCE5709F
:102A10002571192060710EE0E078C0070DD0207993
:102A2000411C21716179884205D90DA0FDF748FC50
:102A3000052060712571012070BD0DA0FDF740FCDF
:102A4000E07840F00100E070F5E70000001002407F
:102A5000C00000204B4559302055500D0A000000A1
:102A60004B455930205052455353204F4E0D0A00CC
:102A70004B45593020444F574E0D0A0070B5082180
:102A80001448FEF7B4F8144C002548B12078B0B1D2
:102A900012A0FDF715FC257065701920A0700EE0DE
:102AA0002078C0070DD06078411C6170A178884201
:102AB00005D90DA0FDF704FC0520A070657001206C
:102AC00070BD0DA0FDF7FCFB207840F001002070E8
:102AD000F5E7000000100240C00000204B455931CE
:102AE0002055500D0A0000004B45593120505245E9
:102AF0005353204F4E0D0A004B45593120444F5738
:102B00004E0D0A0070B50D4C0D4820600020A060ED
:102B100020611821616001256561E0602046FFF7B2
:102B200045FE084820606560022060612046FFF78E
:102B30003DFEBDE87040FFF73FBF00004C010020A4
:102B4000001002400000024010B50448FFF7A2FE4A
:102B50000248BDE810401430FFF79CBEC8000020BA
:102B60002DE9F05F3220FFF773FD01210020FEF711
:102B7000A5FB3220FFF76CFD0020FEF745FAFE4C66
:102B8000A08049F2413245F210364FF6FF7841F607
:102B9000631745F21055FF2804D3404502D0B0F525
:102BA000134F78D1D320FEF779FBFEF723FAA080EC
:102BB000FEF720FAA080FEF71DFA08EA0020A080A8
:102BC000FEF718FAA1880843A080904263D0BF2086
:102BD000FEF764FBFEF70EFAA080FEF70BFAA0806A
:102BE000FEF708FAA080FEF705FA08EA0020A080A8
:102BF000FEF700FAA1880843A080A0F5D04104396F
:102C000049D0D420FEF74AFBFEF7F4F9A080FEF786
:102C1000F1F9A080FEF7EEF908EA0020A080FEF7A7
:102C2000E9F9A1880843A080B04234D04FF45A405B
:102C3000FEF734FBFEF7DEF9A0804FF45B40FEF7B1
:102C40002DFBFEF7D7F908EA0020A0804FF45C4086
:102C5000FEF724FBFEF7CEF9A1880843A080B0F56B
:102C6000004F00D1A580A088A84214D0A120FEF773
:102C700015FBFEF7BFF9A080FEF7BCF908EA0020BB
:102C8000A080FEF7B7F9A1880843A080A0F5AE4167
:102C9000613900D1A780A188914205D0B14203D00B
:102CA000A94201D0B94210D1B448026822F00F0203
:102CB0000260026822F470620260026842F003025D
:102CC0000260026842F400720260ADA0FDF7F8FAFB
:102CD000A088A8427ED14FF4704355211846FEF7D4
:102CE000EDFA4FF20104AA212046FEF7E7FA651C2F
:102CF00052212846FEF7E2FAA61C08213046FEF7CC
:102D0000DDFAE71C01213846FEF7D8FA0D214FF411
:102D10003040FEF7D3FA0D214BF20100FEF7CEFA58
:102D20000D214BF20200FEF7C9FA4FF43648342168
:102D30004046FEF7C3FA34214BF20160FEF7BEFABB
:102D400034214BF20260FEF7B9FA4FF431490D21FC
:102D50004846FEF7B3FA4BF2011A0D215046FEF732
:102D6000ADFA0D214BF20210FEF7A8FA4FF4374BE3
:102D700034215846FEF7A2FA34214BF20170FEF7D7
:102D80009DFA34214BF20270FEF798FA00214FF4BD
:102D90003240FEF793FA00214BF20120FEF78EFA43
:102DA00000214BF20220FEF789FA24214FF438402B
:102DB000FEF784FA24214BF60100FEF77FFA242166
:102DC0004BF60200FEF77AFA01214FF43F40FEF77E
:102DD00075FA00E0FDE30F214FF43340FEF76EFA81
:102DE0000F214BF20130FEF769FA0F214BF202304E
:102DF000FEF764FA34214FF43940FEF75FFA3421CC
:102E00004BF60110FEF75AFA34214BF60210FEF78A
:102E100055FA08214FF43540FEF750FA08214BF2DD
:102E20000150FEF74BFA08214BF20250FEF746FA2A
:102E300003214FF44240FEF741FA24214FF43A4077
:102E4000FEF73CFA24214BF60120FEF737FA242145
:102E50004BF60220FEF732FA00214FF43C40FEF719
:102E60002DFA78214BF60140FEF728FA00214BF6A7
:102E70000240FEF723FA00214FF43D40FEF71EFA10
:102E800078214BF60150FEF719FA00214BF602505B
:102E9000FEF714FA00214FF43E40FEF70FFA6421CA
:102EA0004BF60160FEF70AFA00214FF45140FEF79D
:102EB00005FA33214DF20110FEF700FA00214DF220
:102EC0000210FEF7FBF934214DF20310FEF7F6F97C
:102ED00000214DF20410FEF7F1F93A214DF20510F0
:102EE000FEF7ECF900214DF20610FEF7E7F94A2152
:102EF0004DF20710FEF7E2F900214DF20810FEF73F
:102F0000DDF95C214DF20910FEF7D8F900214DF2F0
:102F10000A10FEF7D3F981214DF20B10FEF7CEF91E
:102F200000214DF20C10FEF7C9F9A6214DF20D104B
:102F3000FEF7C4F900214DF20E10FEF7BFF9E521AE
:102F40004DF20F10FEF7BAF901214DF21010FEF705
:102F5000B5F913214DF21110FEF7B0F901214DF230
:102F60001210FEF7ABF954214DF21310FEF7A6F93B
:102F700001214DF214100BE0181000201C0100A0DC
:102F8000204C43442049443A25780D0A00000000B3
:102F9000FEF794F982214DF21510FEF78FF9012109
:102FA0004DF21610FEF78AF9CA214DF21710FEF7FE
:102FB00085F902214DF21810FEF780F900214DF23B
:102FC0001910FEF77BF902214DF21A10FEF776F97F
:102FD00001214DF21B10FEF771F902214DF21C1078
:102FE000FEF76CF934214DF21D10FEF767F902214E
:102FF0004DF21E10FEF762F967214DF21F10FEF729
:103000005DF902214DF22010FEF758F984214DF2AE
:103010002110FEF753F902214DF22210FEF74EF96E
:10302000A4214DF22310FEF749F902214DF224109C
:10303000FEF744F9B7214DF22510FEF73FF90221C2
:103040004DF22610FEF73AF9CF214DF22710FEF788
:1030500035F902214DF22810FEF730F9DE214DF24C
:103060002910FEF72BF902214DF22A10FEF726F95E
:10307000F2214DF22B10FEF721F902214DF22C1016
:10308000FEF71CF9FE214DF22D10FEF717F9032172
:103090004DF22E10FEF712F910214DF22F10FEF70F
:1030A0000DF903214DF23010FEF708F933214DF2EE
:1030B0003110FEF703F903214DF23210FEF7FEF84E
:1030C0006D214DF23310FEF7F9F800214FF4524014
:1030D000FEF7F4F833214DF20120FEF7EFF800215E
:1030E0004DF20220FEF7EAF834214DF20320FEF7FC
:1030F000E5F800214DF20420FEF7E0F83A214DF208
:103100000520FEF7DBF800214DF20620FEF7D6F889
:103110004A214DF20720FEF7D1F800214DF2082098
:10312000FEF7CCF85C214DF20920FEF7C7F800212C
:103130004DF20A20FEF7C2F881214DF20B20FEF776
:10314000BDF800214DF20C20FEF7B8F8A6214DF293
:103150000D20FEF7B3F800214DF20E20FEF7AEF879
:10316000E5214DF20F20FEF7A9F801214DF21020C4
:10317000FEF7A4F813214DF21120FEF79FF801216C
:103180004DF21220FEF79AF854214DF21320FEF76B
:1031900095F801214DF21420FEF790F882214DF2AE
:1031A0001520FEF78BF801214DF21620FEF786F868
:1031B000CA214DF21720FEF781F802214DF21820A6
:1031C000FEF77CF800214DF21920FEF777F8022176
:1031D0004DF21A20FEF772F801214DF21B20FEF786
:1031E0006DF802214DF21C20FEF768F834214DF2F3
:1031F0001D20FEF763F802214DF21E20FEF75EF857
:1032000067214DF21F20FEF759F802214DF22020D0
:10321000FEF754F884214DF22120FEF74FF80221E9
:103220004DF22220FEF74AF8A4214DF22320FEF7AA
:1032300045F802214DF22420FEF740F8B7214DF267
:103240002520FEF73BF802214DF22620FEF736F846
:10325000CF214DF22720FEF731F802214DF2282030
:10326000FEF72CF8DE214DF22920FEF727F8022187
:103270004DF22A20FEF722F8F2214DF22B20FEF724
:103280001DF802214DF22C20FEF718F8FE214DF218
:103290002D20FEF713F803214DF22E20FEF70EF835
:1032A00010214DF22F20FEF709F803214DF23020B6
:1032B000FEF704F833214DF23120FDF7FFFF032123
:1032C0004DF23220FDF7FAFF6D214DF23320FDF76C
:1032D000F5FF00214FF45340FDF7F0FF33214DF28D
:1032E0000130FDF7EBFF00214DF20230FDF7E6FF64
:1032F00034214DF20330FDF7E1FF00214DF204309F
:10330000FDF7DCFF3A214DF20530FDF7D7FF002134
:103310004DF20630FDF7D2FF4A214DF20730FDF79E
:10332000CDFF00214DF20830FDF7C8FF5C214DF2C2
:103330000930FDF7C3FF00214DF20A30FDF7BEFF53
:1033400081214DF20B30FDF7B9FF00214DF20C3019
:10335000FDF7B4FFA6214DF20D30FDF7AFFF0021C0
:103360004DF20E30FDF7AAFFE5214DF20F30FDF7CB
:10337000A5FF01214DF21030FDF7A0FF13214DF202
:103380001130FDF79BFF01214DF21230FDF796FF42
:1033900054214DF21330FDF791FF01214DF214300D
:1033A000FDF78CFF82214DF21530FDF787FF0121DB
:1033B0004DF21630FDF782FFCA214DF21730FDF7AE
:1033C0007DFF02214DF21830FDF778FF00214DF20C
:1033D0001930FDF773FF02214DF21A30FDF76EFF31
:1033E00001214DF21B30FDF769FF02214DF21C3027
:1033F000FDF764FF34214DF21D30FDF75FFF022120
:103400004DF21E30FDF75AFF67214DF21F30FDF7D8
:1034100055FF02214DF22030FDF750FF84214DF27F
:103420002130FDF74BFF02214DF22230FDF746FF20
:10343000A4214DF22330FDF741FF02214DF224304B
:10344000FDF73CFFB7214DF22530FDF737FF022194
:103450004DF22630FDF732FFCF214DF22730FDF738
:103460002DFF02214DF22830FDF728FFDE214DF21D
:103470002930FDF723FF02214DF22A30FDF71EFF10
:10348000F2214DF22B30FDF719FF02214DF22C30C5
:10349000FDF714FFFE214DF22D30FDF70FFF032144
:1034A0004DF22E30FDF70AFF10214DF22F30FDF7BF
:1034B00005FF03214DF23030FDF700FF33214DF2BF
:1034C0003130FDF7FBFE03214DF23230FDF7F6FE01
:1034D0006D214DF23330FDF7F1FE00214FF45440E1
:1034E000FDF7ECFE33214DF20140FDF7E7FE002130
:1034F0004DF20240FDF7E2FE34214DF20340FDF7AC
:10350000DDFE00214DF20440FDF7D8FE3A214DF2D8
:103510000540FDF7D3FE00214DF20640FDF7CEFE3B
:103520004A214DF20740FDF7C9FE00214DF2084047
:10353000FDF7C4FE5C214DF20940FDF7BFFE0021FE
:103540004DF20A40FDF7BAFE81214DF20B40FDF726
:10355000B5FE00214DF20C40FDF7B0FEA6214DF264
:103560000D40FDF7ABFE00214DF20E40FDF7A6FE2B
:10357000E5214DF20F40FDF7A1FE01214DF2104073
:10358000FDF79CFE13214DF21140FDF797FE01213E
:103590004DF21240FDF792FE54214DF21340FDF71B
:1035A0008DFE01214DF21440FDF788FE82214DF27F
:1035B0001540FDF783FE01214DF21640FDF77EFE1A
:1035C000CA214DF21740FDF779FE02214DF2184055
:1035D00000E00AE3FDF772FE00214DF21940FDF70D
:1035E0006DFE02214DF21A40FDF768FE01214DF2F9
:1035F0001B40FDF763FE02214DF21C40FDF75EFE0D
:1036000034214DF21D40FDF759FE02214DF21E40BE
:10361000FDF754FE67214DF21F40FDF74FFE0221DA
:103620004DF22040FDF74AFE84214DF22140FDF786
:1036300045FE02214DF22240FDF740FEA4214DF24D
:103640002340FDF73BFE02214DF22440FDF736FEFC
:10365000B7214DF22540FDF731FE02214DF2264003
:10366000FDF72CFECF214DF22740FDF727FE02216A
:103670004DF22840FDF722FEDE214DF22940FDF7F4
:103680001DFE02214DF22A40FDF718FEF2214DF2F7
:103690002B40FDF713FE02214DF22C40FDF70EFEEC
:1036A000FE214DF22D40FDF709FE03214DF22E4083
:1036B000FDF704FE10214DF22F40FDF7FFFD032121
:1036C0004DF23040FDF7FAFD33214DF23140FDF768
:1036D000F5FD03214DF23240FDF7F0FD6D214DF275
:1036E0003340FDF7EBFD00214FF45540FDF7E6FDBB
:1036F00033214DF20150FDF7E1FD00214DF2025062
:10370000FDF7DCFD34214DF20350FDF7D7FD00211C
:103710004DF20450FDF7D2FD3A214DF20550FDF770
:10372000CDFD00214DF20650FDF7C8FD4A214DF2B6
:103730000750FDF7C3FD00214DF20850FDF7BEFD17
:103740005C214DF20950FDF7B9FD00214DF20A5000
:10375000FDF7B4FD81214DF20B50FDF7AFFD0021C7
:103760004DF20C50FDF7AAFDA6214DF20D50FDF7CC
:10377000A5FD00214DF20E50FDF7A0FDE5214DF213
:103780000F50FDF79BFD01214DF21050FDF796FD06
:1037900013214DF21150FDF791FD01214DF2125010
:1037A000FDF78CFD54214DF21350FDF787FD0121EB
:1037B0004DF21450FDF782FD82214DF21550FDF7B8
:1037C0007DFD01214DF21650FDF778FDCA214DF225
:1037D0001750FDF773FD02214DF21850FDF76EFDF5
:1037E00000214DF21950FDF769FD02214DF21A50EA
:1037F000FDF764FD01214DF21B50FDF75FFD022135
:103800004DF21C50FDF75AFD34214DF21D50FDF7CD
:1038100055FD02214DF21E50FDF750FD67214DF27E
:103820001F50FDF74BFD02214DF22050FDF746FDE4
:1038300084214DF22150FDF741FD02214DF222502D
:10384000FDF73CFDA4214DF22350FDF737FD022189
:103850004DF22450FDF732FDB7214DF22550FDF712
:103860002DFD02214DF22650FDF728FDCF214DF20E
:103870002750FDF723FD02214DF22850FDF71EFDD4
:10388000DE214DF22950FDF719FD02214DF22A509B
:10389000FDF714FDF2214DF22B50FDF70FFD022133
:1038A0004DF22C50FDF70AFDFE214DF22D50FDF793
:1038B00005FD03214DF22E50FDF700FD10214DF2C4
:1038C0002F50FDF7FBFC03214DF23050FDF7F6FCC5
:1038D00033214DF23150FDF7F1FC03214DF232500E
:1038E000FDF7ECFC6D214DF23350FDF7E7FC0021B4
:1038F0004FF45640FDF7E2FC33214DF20160FDF735
:10390000DDFC00214DF20260FDF7D8FC34214DF2C0
:103910000360FDF7D3FC00214DF20460FDF7CEFCFF
:103920003A214DF20560FDF7C9FC00214DF2066019
:10393000FDF7C4FC4A214DF20760FDF7BFFC0021F2
:103940004DF20860FDF7BAFC5C214DF20960FDF70D
:10395000B5FC00214DF20A60FDF7B0FC81214DF26B
:103960000B60FDF7ABFC00214DF20C60FDF7A6FCEF
:10397000A6214DF20D60FDF7A1FC00214DF20E6075
:10398000FDF79CFCE5214DF20F60FDF797FC01214E
:103990004DF21060FDF792FC13214DF21160FDF71E
:1039A0008DFC01214DF21260FDF788FC54214DF28F
:1039B0001360FDF783FC01214DF21460FDF77EFCDE
:1039C00082214DF21560FDF779FC01214DF2166060
:1039D000FDF774FCCA214DF21760FDF76FFC022160
:1039E0004DF21860FDF76AFC00214DF21960FDF7F9
:1039F00065FC02214DF21A60FDF760FC01214DF2D9
:103A00001B60FDF75BFC02214DF21C60FDF756FCCC
:103A100034214DF21D60FDF751FC02214DF21E6074
:103A2000FDF74CFC67214DF21F60FDF747FC0221BA
:103A30004DF22060FDF742FC84214DF22160FDF73C
:103A40003DFC02214DF22260FDF738FCA4214DF22D
:103A50002360FDF733FC02214DF22460FDF72EFCBC
:103A6000B7214DF22560FDF729FC02214DF22660B9
:103A7000FDF724FCCF214DF22760FDF71FFC02214A
:103A80004DF22860FDF71AFCDE214DF22960FDF7AA
:103A900015FC02214DF22A60FDF710FCF2214DF2D7
:103AA0002B60FDF70BFC02214DF22C60FDF706FCAC
:103AB000FE214DF22D60FDF701FC03214DF22E6039
:103AC000FDF7FCFB10214DF22F60FDF7F7FB032102
:103AD0004DF23060FDF7F2FB33214DF23160FDF71E
:103AE000EDFB03214DF23260FDF7E8FB6D214DF255
:103AF0003360FDF7E3FB55211846FDF7DFFBAA21F4
:103B00002046FDF7DBFB52212846FDF7D7FB0821B5
:103B10003046FDF7D3FB00213846FDF7CFFBCC2123
:103B20004846FDF7CBFB00215046FDF7C7FB0521BA
:103B30004046FDF7C3FB70215846FDF7BFFB7021DF
:103B40004BF20170FDF7BAFB01214FF43840FDF74D
:103B5000B5FB03214BF60100FDF7B0FB03214BF64B
:103B60000200FDF7ABFB03214BF60300FDF7A6FBBC
:103B700002214FF43C40FDF7A1FB00214BF6014030
:103B8000FDF79CFB00214BF60240FDF797FBD0218F
:103B90004FF44940FDF792FB02214CF60110FDF76E
:103BA0008DFB50214CF60210FDF788FB50214CF69E
:103BB0000310FDF783FB50214CF60410FDF77EFB4C
:103BC00000214FF45450FDF779FB55214FF4685014
:103BD000FDF774FB4FF48850FDF760FB7820FEF78B
:103BE00045FD4FF42450FDF759FB0020FDF7AEF8DA
:103BF000002202210448FEF70DFEBDE8F05F4FF6FB
:103C00001F00FDF78BB80000000402401CB500F057
:103C1000DFF9FEF701FC182108A0CDE900100B46E2
:103C2000D22228211E20FDF709FB142109A0FCF750
:103C300047FBFDF76FFB00F0DBF8FAE748656C6CBB
:103C40006F206D792053544D2070656E6E656C2128
:103C5000000000005449434B5F5441534B207369AB
:103C60007A652025640D0A000249002800D0086208
:103C7000086A7047340D0020044841680A2903D9B6
:103C8000002141600120704700207047240000207F
:103C900004488168642903D90021816001207047AC
:103CA000002070472400002070B505460124184804
:103CB000854203D8A0F6AC30854204D2BDE87040FE
:103CC00014A0FCF7FDBA174E03E00068A84204D820
:103CD000641C56F824000028F7D1641E56F824000E
:103CE000817AC27A914204D1BDE870400EA0FCF7FF
:103CF000E7BA01892846FCF764FC56F824004168BD
:103D00004560296056F82400C17A491CC17270BD13
:103D1000100D002066726565206572726F72330D3A
:103D20000A000000880000206672656520657272D6
:103D30006F72320D0A00000030B5002100200C4CDB
:103D400054F820301A689D7A1B895D4309E054F8C5
:103D500020301B89134413601A4654F820301B8905
:103D60001944A942F3DB0021401C0428E8D330BDEC
:103D70008800002010B50021144A03E0491C52F8C5
:103D80002130C3B152F821301B898342F6DB52F84F
:103D90002130D87AA0B1586804685C6052F821409C
:103DA000E37A5B1EDBB2E37252F821100A7B934286
:103DB00000D20B7310BD06A0FCF782FA002010BDE4
:103DC00007A0FCF77DFA002010BD0000880000204D
:103DD0004D4D2073206572722025640D0A0000008D
:103DE0004D4D206E756D206572726F720D0A000068
:103DF00010B5FFF741FF10B10948FEF7CDFBFFF703
:103E000047FF28B106480830FEF7C6FBFDF7C2FAA7
:103E1000FEF7A2FBBDE810407F20FEF799BB000033
:103E20003000002022210148FCF7CBBB100D002000
:103E300024210148FCF7E7BB340D00203EB541F6D4
:103E4000FF7401210807FDF77BFB0120FDF708FB4C
:103E50000020FDF7E9FD45F25005A8422ED00120D3
:103E6000FDF72CFC04E0641CA4B20A20FEF7F0FB72
:103E70004120FDF7EDFB0028F5D00CB34FF4807026
:103E8000FDF75EFC0120FDF755FC7F200190FF202F
:103E90000290002000906846FDF79EFD00231A4620
:103EA0003B211120FDF77EFE05230622032114206D
:103EB000FDF76AFE29460020FDF7CCFE00203EBD3E
:103EC00001203EBD2DE9F04707460D4690460024EF
:103ED00020222946384600F049F80646A14614E05B
:103EE000042C0FDAA81907F800907A192146641CEF
:103EF00048F82120451C20222946384600F036F893
:103F0000064602E005A0FCF7DBF9701CE8D1781941
:103F100048F82400601CBDE8F0870000617267204B
:103F2000746F6F206D7563680D0A00002DE9F04114
:103F300080460F4600240026002F0ED00A4D08E0D0
:103F400005EBC4003A4640684146FCF7AAFA38B18E
:103F5000641C55F834000028F2D13046BDE8F081E9
:103F600055F83460F9E70000F400002010B50C4665
:103F700000E0491C435C0BB19342FAD1405C904293
:103F800001D1081B10BD4FF0FF3010BD10B5022845
:103F900006D0372207A10BA0FCF792F9002010BD34
:103FA000086800F07DF8014600220320FDF760FF5D
:103FB000F4E700002E2E5C4452495645525C6D6F6A
:103FC0006E2E630045525225732025640D0A0000B1
:103FD00010B5072302224FF4A8710820FCF712FE47
:103FE000FEF724F8FCF790FCFDF770F9FEF78AFD68
:103FF000FFF7A2FEFCF71AFFFFF720FFFDF7F4FB27
:10400000FEF726FABDE81040AFF30080FEF79CBD36
:1040100038B50C46022806D049220EA111A0FCF7A3
:104020004FF9002038BDFEF7B1FA014610A0FCF7A9
:1040300047F9606800F034F8C5B2206800F030F845
:1040400082B20020014600902B460C48FCF738FC59
:10405000E7E700002E2E5C4452495645525C6D6FD6
:104060006E2E630045525225732025640D0A000010
:1040700073746172743A2025640D0A00814000084F
:1040800010B5FEF783FA014602A0FCF719F90020EB
:1040900010BD0000656E643A2025640D0A00000022
:1040A00010B500216FF02F0409E0A2F13003092BB5
:1040B0000AD801EB810104EB41011144401C027854
:1040C000002AF2D1084610BD1D2203A106A0FCF76C
:1040D000F7F84FF0FF3010BD2E2E5C445249564584
:1040E000525C6D6F6E2E630045525225732025641D
:1040F0000D0A00004FF04070E1EE100A704700001A
:1041000000000000000000000000000000003F4030
:1041100000000000000000003000400030004000BF
:10412000000009000BC03D000BC03D00090018C095
:1041300024407FE0224031800000180024C01B0092
:104140000D803240018003801C4027401C800740C6
:1041500000401000600000000000000000000000AF
:10416000000000001F802040402000004020204030
:104170001F8000000000090006001F8006000900E3
:104180000000040004003F80040004000000001050
:1041900000600000000000000000040004000400B3
:1041A00004000400000000000040000000000000C7
:1041B0000000002001C006003800400000001F8001
:1041C0002040204020401F800000000010403FC0E1
:1041D00000400000000018C0214022402440184048
:1041E000000010802040244024401B80000002007A
:1041F0000D0011003FC0014000003C8024402440DD
:104200002440238000001F80244024403440038049
:1042100000003000200027C03800200000001B8074
:104220002440244024401B8000001C0022C0224067
:1042300022401F8000000000000008400000000035
:10424000000000000000046000000000000000000A
:1042500004000A0011002080404009000900090004
:1042600009000900000000004040208011000A0001
:1042700004001800200023402400180000001F80C4
:104280002040274029401F400000004007C039005F
:104290000F0001C0004020403FC0244024401B804C
:1042A00000001F802040204020403080000020403F
:1042B0003FC0204020401F80000020403FC02440DD
:1042C0002E4030C0000020403FC024402E0030006F
:1042D00000000F0010802040224033800200204068
:1042E0003FC0040004003FC02040204020403FC0A9
:1042F0002040204000000060202020203FC02000FF
:10430000200020403FC024400B0030C0204020400F
:104310003FC020400040004000C03FC03C0003C000
:104320003C003FC0000020403FC00C4023003FC085
:1043300020001F802040204020401F80000020409F
:104340003FC024402400180000001F80214021406D
:1043500020E01FA0000020403FC02440260019C0DC
:10436000004018C02440244022403180000030002A
:1043700020403FC020403000000020003F8000402F
:1043800000403F80200020003E0001C007003800B0
:104390002000380007C03C0007C038000000204063
:1043A00039C0060039C0204000002000384007C056
:1043B000384020000000304021C02640384020C056
:1043C0000000000000007FE04020402000000000CE
:1043D00070000C00038000400000000040204020DE
:1043E0007FE00000000000002000400020000000EE
:1043F000000000100010001000100010001000005D
:1044000000004000000000000000000002800540A5
:10441000054003C0004020003FC00440044003802A
:10442000000000000380044004400640000000003B
:104430000380044024403FC000400000038005404A
:10444000054003400000000004401FC024402440F9
:104450002000000002E005500550065004202040D6
:104460003FC00440040003C000400000044027C0D7
:1044700000400000000000100010041027E00000C1
:10448000000020403FC00140070004C0044020401D
:1044900020403FC000400040000007C0040007C0AB
:1044A000040003C00000044007C00440040003C02F
:1044B000004000000380044004400380000004101A
:1044C00007F0045004400380000000000380044013
:1044D000045007F00010044007C00240040004002C
:1044E0000000000006400540054004C00000000038
:1044F00004001F80044000400000040007800040CA
:10450000044007C000400400070004C0018006000A
:104510000400060001C0070001C0060000000440BE
:1045200006C0010006C0044000000410071004E0AB
:104530000180060004000000044005C0064004405D
:1045400000000000000004007BE0402000000000AC
:1045500000000000FFF000000000000040207BE0B1
:104560000400000000004000800040002000200007
:1045700040000000000000000000000000000000FB
:1045800000000000000000001FCC000C0000000034
:1045900000000000080030006000080030006000EB
:1045A0000000022003FC1E20022003FC1E2002202B
:1045B000000000000E1811043FFF10840C7800006A
:1045C00000000F0010840F3800C0077818840078AE
:1045D000000000780F8410C411240E9800E40084B9
:1045E00000080800680070000000000000000000E3
:1045F000000000000000000007E01818200440023E
:104600000000000040022004181807E0000000002D
:1046100000000240024001800FF001800240024091
:1046200000000080008000800FF800800080008083
:1046300000000001000D000E00000000000000005E
:10464000000000000080008000800080008000806A
:1046500000800000000C000C0000000000000000C2
:10466000000000000006001800600180060018002D
:104670002000000007F0080810041004080807F0E4
:1046800000000000080408041FFC000400040000EF
:10469000000000000E0C10141024104411840E0CA5
:1046A000000000000C1810041104110412880C7092
:1046B0000000000000E00320042408241FFC002464
:1046C000000000001F98108411041104108810705D
:1046D0000000000007F00888110411041888007019
:1046E000000000001C00100010FC13001C00100053
:1046F000000000000E3811441084108411440E385C
:10470000000000000700088C10441044088807F0DF
:104710000000000000000000030C030C000000007B
:104720000000000000000001010600000000000081
:10473000000000000080014002200410080810045E
:10474000000002200220022002200220022002207B
:10475000000000001004080804100220014000803E
:10476000000000000E001200100C106C10800F00F2
:10477000000003E00C1813E4142417C4082807D021
:1047800000000004003C03C41C40074000E4001C7F
:10479000000410041FFC1104110411040E880070A1
:1047A000000003E00C1810041004100410081C1082
:1047B000000010041FFC100410041004080807F087
:1047C000000010041FFC1104110417C41004081881
:1047D000000010041FFC1104110017C01000080095
:1047E000000003E00C181004100410441C78004072
:1047F000000010041FFC10840080008010841FFC47
:1048000010040000100410041FFC10041004000029
:10481000000000030001100110011FFE1000100035
:10482000000010041FFC110403801464181C100401
:10483000000010041FFC1004000400040004000C1D
:10484000000010041FFC1F0000FC1F001FFC1004D0
:10485000000010041FFC0C04030000E010181FFCF3
:10486000100007F00808100410041004080807F0EE
:10487000000010041FFC10841080108010800F00B6
:10488000000007F0081810241024101C080A07F272
:10489000000010041FFC1104110011C011300E0C97
:1048A000000400000E1C11041084108410441C38F5
:1048B00000001800100010041FFC10041000180065
:1048C000000010001FF810040004000410041FF87A
:1048D000100010001E0011E0001C007013801C006E
:1048E00010001FC0103C00E01F0000E0103C1FC083
:1048F00000001004180C163401C001C01634180C46
:10490000100410001C00130400FC13041C00100011
:1049100000000804101C1064108413041C041018F8
:1049200000000000000000007FFE40024002400244
:104930000000000030000C0003800060001C000339
:10494000000000004002400240027FFE0000000024
:104950000000000000002000400040004000200057
:104960000000000100010001000100010001000140
:104970000001000040004000200000000000000096
:10498000000000000098012401440144014400FC9F
:10499000000410001FFC008801040104008800705E
:1049A0000000000000700088010401040104008878
:1049B00000000000007000880104010411081FFCC1
:1049C0000004000000F8014401440144014400C80F
:1049D00000000000010401040FFC11041104110087
:1049E0001800000000D601290129012901C901068A
:1049F000000010041FFC008401000100010400FC01
:104A0000000400000104190419FC00040004000063
:104A100000000000000300010101190119FE00005F
:104A2000000010041FFC0024004001B4010C01042C
:104A300000000000100410041FFC0004000400002B
:104A40000000010401FC0104010001FC010401005B
:104A500000FC010401FC008401000100010400FCD1
:104A60000004000000F8010401040104010400F83E
:104A70000000010101FF00850104010400880070AD
:104A8000000000000070008801040104010501FF1E
:104A900000010104010401FC008401040100018003
:104AA0000000000000CC012401240124012401980D
:104AB000000000000100010007F8010401040000EB
:104AC0000000010001F8000400040004010801FCDA
:104AD0000004010001800170000C001001600180E1
:104AE000010001F0010C003001C00030010C01F0A8
:104AF000010000000104018C00740170018C0104AC
:104B00000000010101810171000E001801600180A7
:104B1000010000000184010C013401440184010CF6
:104B20000000000000000000000001003EFC400208
:104B300040020000000000000000FFFF0000000035
:104B400000000000400240023EFC010000000000A6
:104B50000000000060008000800040004000200055
:104B60002000000000000000000000000000000025
:104B70000000000000000000000000000000000035
:104B80000000000000000000000000000000000025
:104B900000000000000F80380FFE380F8038000042
:104BA0000000000000000000000000000000000005
:104BB0000100000600000C00003800003100000673
:104BC00000000C0000380000300000000000000071
:104BD000000061800067F807F98000618000618053
:104BE0000061800061800067F807F9800061800043
:104BF000000000000000000001C0E003E0F006300B
:104C0000080418081FFFFE040E080787F00381E060
:104C100000000000000001F000060C00040408067B
:104C20000C7001F9C0000E00003BE000EC18070812
:104C300008040C180003E00000000001E00007F089
:104C400003F818041C0804170807E1D003C0E000AB
:104C500023B0003C08002008000010000000000005
:104C6000000100003100003200001C0000000000C4
:104C70000000000000000000000000000000000034
:104C80000000000000000000000000000000000024
:104C900000007F0001FFC00780F00C001810000426
:104CA0002000020000000000002000021000040CA0
:104CB00000180780F001FFC0007F00000000000026
:104CC00000000000000000000000000000004200A2
:104CD000006600006600003C0000180003FFC000F2
:104CE0001800003C00006600006600004200000062
:104CF000000008000008000008000008000008008C
:104D000001FFC000080000080000080000080000C3
:104D10000800000000000001000031000032000027
:104D20001C00000000000000000000000000000067
:104D30000000000000000000000008000008000063
:104D40000800000800000800000800000800000833
:104D50000000080000080000000000000000000043
:104D6000000038000038000038000000000000009B
:104D70000000000000000000000000000000000033
:104D80000000000600001C000070000180000E0002
:104D900000380000C0000700001C000030000000C8
:104DA0000000000000007F8001FFE003807006002B
:104DB0001804000804000806001803807001FFE0D2
:104DC000007F8000000000000000000001000801DA
:104DD000000801000803FFF807FFF80000080000C2
:104DE0000800000800000000000000000001C038BA
:104DF00002C058040098040118040218040418069C
:104E00001C1803F81801E0F8000000000000000082
:104E10000001C0E003C0F00400080408080408080A
:104E200006180803F41801E7F00001E00000000094
:104E30000000000000000300000D000011000061F0
:104E40000000810803010807FFF80FFFF8000108C0
:104E50000001080000000000000000E007FCD00690
:104E60000808061008061008061008061838060F6D
:104E7000F00607C0000000000000000000003F80B6
:104E800001FFE0038430020818041008041008042D
:104E90001008071810030FF00007C0000000000002
:104EA0000000000003C0000700000600000600F834
:104EB0000607F806180006E00007000006000000DC
:104EC000000000000001E1E003F7F00634100418D0
:104ED00008041808040C08040C0806161803F3F05C
:104EE00001C1E000000000000000F80003FC3003F6
:104EF0000638040208040208040208040410030827
:104F0000F001FFC0007F0000000000000000000072
:104F10000000000000000000000070380070380041
:104F200070380000000000000000000000000000D9
:104F30000000000000000000000000000000301A27
:104F400000301C0000000000000000000000000015
:104F50000000000000000000000800001400002213
:104F60000000410000808001004002002004001089
:104F700008000800000000000000210000210000DF
:104F8000210000210000210000210000210000215B
:104F900000002100002100000000000000000000CF
:104FA000080008040010020020010040008080007A
:104FB0004100002200001400000800000000000072
:104FC0000003C00004C000040000080038080F38C7
:104FD0000808380810000C300007E00003C000008B
:104FE0000000000000003F8000FFE0038070020F1F
:104FF0001006708804C088048308047F8802C0906B
:1050000003012000FE400000080000180001F80025
:105010003E0801C20007020007E20000FE00001F78
:10502000C80001F800003800000804000807FFF875
:1050300007FFF8040808040808040808040808061C
:10504000180803F41801E7F00001E0000000000078
:1050500000003F8001FFE003807002001804000898
:105060000400080400080400100600200780C000A7
:10507000000004000807FFF807FFF8040008040018
:105080000804000804001802001003807001FFE00B
:10509000007F8000000004000807FFF807FFF80405
:1050A0000808040808040808040808043E08040066
:1050B0000806001801006000000004000807FFF85F
:1050C00007FFF804080804080004080004080004A6
:1050D0003E00060000060000018000000000000005
:1050E00000003F8001FFE003807006001804000804
:1050F0000402080402080203F00783F00002000023
:10510000020004000807FFF807FFF8040808000879
:105110000000080000080000080004080807FFF865
:1051200007FFF80400080000000000000400080465
:10513000000804000807FFF807FFF804000804004F
:105140000804000800000000000000000000000645
:10515000000007000001040001040001040003072F
:10516000FFFE07FFFC040000040000040000040030
:105170000807FFF807FFF8040C08001800003E00BD
:1051800004C7800503C80600F804003804001800AE
:10519000000804000807FFF807FFF80400080000F3
:1051A00008000008000008000008000008000018BF
:1051B00000006000000004000807FFF807800807EF
:1051C000FC00007FC00003F80007C00078000780E3
:1051D0000807FFF807FFF804000804000807FFF8B5
:1051E00007000803C00000E000003800001E0000B7
:1051F00007000001C00400F007FFF80400000000F1
:1052000000007F8001FFE0038070060018040008A2
:1052100004000806001803003001FFE0007F800052
:10522000000004000807FFF807FFF804040804045E
:1052300000040400040400040400060C0003F80049
:1052400001F000000000000000007F8001FFE0038B
:1052500080700600880400880400C806003C030033
:105260003E01FFE6007F8400000004000807FFF80D
:1052700007FFF8040808040800040C00040F0004E9
:105280000BC00610F003F03801E008000008000031
:105290000001E0F803F03006301004180804180884
:1052A000040C08040C080206180207F00781E0004D
:1052B000000001800006000004000004000004005B
:1052C0000807FFF807FFF8040008040000040000C6
:1052D00006000001800004000007FFE007FFF00463
:1052E0000018000008000008000008000008000086
:1052F0000804001007FFE00400000400000600009E
:1053000007E00007FE00041FE00001F8000038007D
:1053100001E0043E0007C000060000040000040095
:105320000007E00007FFC0041FF80007C007F800EF
:1053300007FF80043FF80007C004F80007000004DE
:10534000000000000004000806001807C07805F1FE
:10535000C8003E00001F800463E80780F8060018BC
:105360000400080000000400000600000780000799
:10537000E008047C08001FF80007F800180804E0A3
:1053800008070000060000040000000000010008FB
:105390000600380400F80403E8040F08047C08053C
:1053A000F00807C0080700180400600000000000B3
:1053B000000000000000000000000000003FFFFEB1
:1053C0002000022000022000022000022000020033
:1053D000000000000000000008000007000000C0FE
:1053E000000038000006000001C000003000000E80
:1053F000000001000000000000000000200002206A
:1054000000022000022000022000023FFFFE0000F8
:10541000000000000000000000000000000000008C
:1054200000000008000010000030000020000030E4
:105430000000100000080000000000000000000054
:105440000100000100000100000100000100000156
:105450000000010000010000010000010000010047
:1054600000010000000000000000002000002000FB
:10547000001000001000000000000000000000000C
:105480000000000000000000000000F00019F8001B
:105490001B18002208002608002408002410003FE2
:1054A000F8001FF8000008000018000000040000C9
:1054B00007FFF80FFFF00018180010080020080080
:1054C0002008003018001FF0000FC000000000008E
:1054D000000007C0001FF00018300020080020085E
:1054E000002008003C08001C1000006000000000C4
:1054F00000000000000007C0001FF0003818002066
:105500000800200800200804101007FFF80FFFF023
:105510000000100000000000000000000007C000B4
:105520001FF000123000221800220800220800326A
:1055300008001E10000E20000000000000002000E7
:1055400000200800200801FFF803FFF806200804E7
:1055500020080420080720000300000000000000CD
:105560000000000E000E6E001FF30031B10020B1EC
:105570000020B1003191001F13002E1E00200E00EC
:10558000300000000004000807FFF80FFFF80010CB
:1055900008002000002000002008003FF8001FF84D
:1055A00000000800000000000000000000200800CB
:1055B0002008002008063FF8063FF8000008000019
:1055C00008000008000000000000000000000000CB
:1055D000000003000003002001002001002003065A
:1055E0003FFE063FFC00000000000000000000003D
:1055F0000004000807FFF80FFFF80001880003000F
:10560000002FC00038F800203800200800000800F3
:10561000000000000000000004000804000804006E
:105620000807FFF80FFFF800000800000800000856
:10563000000000000000002008003FF8003FF800D4
:105640001008002000003FF8003FF800100800207C
:1056500000003FF8003FF8000008000000002008AC
:10566000003FF8003FF80010080010000020000084
:105670002008003FF8001FF80000080000000000AC
:10568000000007C0000FF0001830003008002008AC
:10569000002008003008001830000FF00007C0009C
:1056A0000000000000002001003FFF003FFF00104D
:1056B00011002009002008002008003038001FF0E9
:1056C000000FC00000000000000007C0001FF00035
:1056D0003818002008002008002009001011001FC1
:1056E000FF003FFF0000010000000020080020082C
:1056F000002008003FF8003FF800080800100800EC
:1057000020080020000030000030000000000000F1
:1057100000000000000C78001E1800330800230869
:105720000021080021880021980030F00038600036
:10573000000000000000200000200000200000FF0A
:10574000F003FFF8002008002008002008000030C7
:10575000000000000000000000002000003FF000FA
:105760007FF8000018000008000008002010003F2B
:10577000F8007FF000001000000000000000200092
:10578000003000003C00003F800023F00000780063
:105790000070002380003C0000300000200000204A
:1057A00000003C00003FE00023F80000E00027007C
:1057B000003E00003FE00021F80001E0003E000054
:1057C0002000000000002008002008003838003EBB
:1057D000680027800003C8002CF800383800201823
:1057E000002008000000000000002000003003003E
:1057F0003C01003F830023EC000070002380003C4C
:105800000000200000200000000000000000000058
:105810000038080020380020F80023E8002F880016
:105820003E0800380800201800007000000000004A
:105830000000000000000000000000000000080060
:105840000014001FF7FC30000620000200000000DA
:105850000000000000000000000000000000000048
:1058600000000000FFFFFF0000000000000000003B
:1058700000000000000000000000000020000230D6
:1058800000061FF7FC0014000008000000000000E4
:1058900000000000000000000000000000180000F0
:1058A00060000040000040000020000010000008E0
:1058B00000000400000400000C00001000000000C4
:1058C0003200000090010000B40000005802000007
:1058D0002C01000090010000AE0100005802000001
:1058E000C8000000180100002C010000E0010000C9
:1058F000DC0000002C0100007C010000C20100005F
:10590000DC000000F40100007C0100008A020000BD
:10591000DD0C0008AD1F000871140008303132336F
:1059200034353637383941424344454640305800D3
:105930003031323334353637383961626364656605
:1059400040307800746F75636800000068656C6CA7
:105950006F00000074696D65720000006D656D6F09
:105960007279000084590008000000202C0100001A
:10597000C40100080C5A00082C0100206C1500001E
:105980002002000811847A030A6809010203040650
:105990000708090C6910022B01692C1364012A20E5
:1059A000041214340505051AC80C29045A281013CA
:1059B00090022A20045A801022581B2068041A786A
:1059C000041A9C04411310052A200411ED0204045A
:1059D0000461913A190341137D2A8208120449D7C0
:1059E0000B10F52914134D1314084C5914081140C9
:1059F0001B085408139D0C1B085C08138D3F1B08E3
:0C5A00004408812317EFA3FFFF00000003
:040000050800018965
:00000001FF
